:10029300020A0000020C0000020800000211000024
:1002820012026FC2A312025BC2B6D2AF12016F801A
:01029200FB70
:10016F00E50945087034F50875090112020A8F0F69
:10017F00E50F6510550FF50E850F1024FE6009046D
:10018F007018A2A2B392A222E512151270021511D5
:0B019F001445117005F51175120A22BD
:03000B000201AA45
:1001AA00C0E0C0D00509E50970020508640A4508DF
:1001BA007004F508F50920A319050DE50D7002056F
:1001CA000CC394F4E50C94014008D2A3750C007595
:0701DA000D00D0D0D0E0328F
:10026F00438E805389F0758ACD758CD4C28DD28C14
:03027F00D2A922DF
:1002A400C2A7C2A68F80D2A51202E6C2A50202E6A8
:1002B400D2A7C2A68F80D2A51202E6C2A50202E688
:10025B007F381202A47F0C1202A47F061202A47F25
:04026B00010202A4E6
:100244008D1EEF64017005E51E148004E51E243F35
:070254004480FF1202A42206
:0A02DC008B1F120244AF1F0202B490
:0601E1008B1A8A1B891C29
:1001E700E4F51D120244E4F51DAB1AAA1BA91C85F0
:1001F7001D8275830012000EFF60071202B4051DF1
:0202070080E78E
:0102090022D2
:04022A00AB05A90770
:10022E007F017E00E4FAEAC39B500AE9FD7C0012CE
:05023E00003B0A80F105
:010243002298
:04012E008A158B168D
:10013200E4F519120244851819D3E5199400748064
:1001420094804028E51914FD7F0A12022AAC15ADED
:1001520016CFCDCFCECCCE12004D7C007D0A120040
:0C0162004DED2430FF1202B4151980CDC1
:01016E00226E
:0A02D10000007F367EC6DEFEDFFC73
:0102DB002200
:0902E600007F0B7EBEDEFEDFFC92
:0102EF0022EC
:0C02C4007F167E037DE3DDFEDEFCDFFA2A
:0102D000220B
:10020A00E4FF2092010F2093027F022094027F03D1
:0F021A002095027F042096027F0520B3027F0605
:0102290022B2
:030000000200A259
:0C00A200787FE4F6D8FD75811F0200E9AC
:10000E00BB010CE58229F582E5833AF583E02250A7
:10001E0006E92582F8E622BBFE06E92582F8E222F1
:0D002E00E58229F582E5833AF583E493220B
:10003B00EF8DF0A4A8F0CF8CF0A428CE8DF0A42ED9
:02004B00FE2293
:10004D00BC000BBE0029EF8DF084FFADF022E4CC97
:10005D00F875F008EF2FFFEE33FEEC33FCEE9DEC60
:10006D00984005FCEE9DFE0FD5F0E9E4CEFD22EDA6
:10007D00F8F5F0EE8420D21CFEADF075F008EF2FF0
:10008D00FFED33FD4007985006D5F0F222C398FDE1
:05009D000FD5F0EA227E
:1000AE00020282E493A3F8E493A34003F68001F2E4
:1000BE0008DFF48029E493A3F85407240CC8C33353
:1000CE00C4540F4420C8834004F456800146F6DF22
:1000DE00E4800B0102040810204080900293E47E1D
:1000EE00019360BCA3FF543F30E509541FFEE49317
:1000FE00A360010ECF54C025E060A840B8E493A3DE
:10010E00FAE493A3F8E493A3C8C582C8CAC583CA08
:10011E00F0A3C8C582C8CAC583CADFE9DEE780BEC0
:0102A300005A
:00000001FF
