:10139C002530362E3266005072657373204F4B2009
:1013AC00537461727421007546006E4600704600DD
:1013BC00496E7075742050617373776F7264004559
:1013CC0052524F5200524947485400576169742E8B
:1013DC002E2E005072657373204F4B20456E6400A7
:1012D5000223000002540000024800000239000009
:1012E500023B00000252000102370000064C30307C
:1012F50030303030012D00013105065630303030A8
:1013050030300626313030303030013000014100B8
:101315004400300000000058003442C8000041205D
:1013250000003F800000000000003DCCCCCD3C23F8
:05133500D70A012200AF
:1014D80012152412157D12158CC200E4FF12133B5D
:0B14E800120AFE120F3012142D80F5C6
:100F3000E55545546003021105F554755501E52D3D
:100F40006003020FD3755FFF75601375619C854068
:100F500065853F64853E63853D62FB7A00794C126E
:100F600006EB7F0C12155D7BFF7A1379A37D017F61
:100F700001121468AB4C7D017F021215B3AB4D7D9D
:100F8000027F021215B3AB4E7D037F021215B3AB85
:100F90004F7D047F021215B3AB507D057F02121501
:100FA000B3AB517D067F021215B3E54514601214F0
:100FB0006017240260030210D47BFF7A1379B38098
:100FC0000E7BFF7A1379B680067BFF7A1379B97DA1
:100FD000078067E52D6401701C7F0F12155D7BFF94
:100FE0007A1379BC7D027F011214687B007A007944
:100FF000567D068045E52D6402700D7F0C12155D4F
:101000007BFF7A1379CB8011E52D640370117F0C7F
:1010100012155D7BFF7A1379D17D067F01801DE576
:101020002D6404701D7BFF7A1379D77D017F011237
:1010300014687BFF7A1379DF7D017F021214680246
:1010400010D4E52D640570707F0F12155D755FFF7C
:1010500075601375619C900030E0FCA3E0FDA3E097
:10106000FEA3E0F5658E648D638C627B007A007967
:101070004C1206EBAB4C7D017F021215B3AB4D7DDC
:10108000027F021215B3AB4E7D037F021215B3AB84
:101090004F7D047F021215B3AB507D057F02121500
:1010A000B3AB517D067F021215B3E5222430FB7DE0
:1010B000017F011215B3801CE52D640670167B417B
:1010C0007D017F011215B37FD07E0712154D1200EE
:1010D00003E4F52DAF2DEF64026005EF6403701D8E
:1010E0007FD07E0712154D120003E52D64027002B9
:1010F000F52DE52D64037005752D05F531E53124D9
:06110000C0FF12155D2284
:100AFE00E52445236003020F2FF5237524011214FC
:100B0E00B88F44E544654BFF5544F54AE544F45F20
:100B1E00F52585444BE54A60067546077547D0E5D1
:100B2E004B6025E5474546701F120003752D01E405
:100B3E00F530D3E530940574809480500B745625AF
:100B4E0030F87630053080EAE54745467003020FEF
:100B5E002FE52524FE6022147003020C1714700377
:100B6E00020C90147003020CBD147003020CF124DD
:100B7E00056003020F2F020F2AAF2D7E00EF6401D6
:100B8E00701574512531F80674512531F8E6D39459
:100B9E003940737639806FEF64054E70699000307E
:100BAE00E0FCA3E0FDA3E0FEA3E0FFE53125E02598
:100BBE00E02434F582E43400F583E0F8A3E0F9A3F1
:100BCE00E0FAA3E0FB12001590003012061CE4FFC1
:100BDE00FE7D7A7C44900030E0F8A3E0F9A3E0FAC1
:100BEE00A3E0FB1202AC401E900030E0FCA3E0FD3F
:100BFE00A3E0FEA3E0FFE4FBFA797A784412001139
:100C0E0090003012061C020F2AAF2D7E00EF6401F9
:100C1E00701474512531F81674512531F8E6642F8D
:100C2E00705D76308059EF64054E7053900030E061
:100C3E00FCA3E0FDA3E0FEA3E0FFE53125E025E007
:100C4E002434F582E43400F583E0F8A3E0F9A3E060
:100C5E00FAA3E0FB12001190003012061CE4FFFE16
:100C6E00FDFC900030E0F8A3E0F9A3E0FAA3E0FB6E
:100C7E001202AC500A90003012062800000000024A
:100C8E000F2AAF2D7E00EF640170121531D3E531BE
:100C9E009405748094805014753105800FEF6405AF
:100CAE004E70091531E531F47002F531020F2AAF9D
:100CBE002D7E00EF640170120531C3E531940A7484
:100CCE00809480401B75310A8016EF64054E7010BB
:100CDE000531D3E531940574809480400375310558
:100CEE00020F2AE52D7009120003752D04020F2A3A
:100CFE00E52D64046003020EAD120003E4F52DF53C
:100D0E0040F53FF53EF53DFFFE7DA07C4090005046
:100D1E00E0F8A3E0F9A3E0FAA3E0FB1202AC600F47
:100D2E00400DE4F540F53F753E48753D42F545E40E
:100D3E00FFFE7DA07C40900050E0F8A3E0F9A3E018
:100D4E00FAA3E0FB1202AC60025037E4FFFEFD7C1A
:100D5E003F900050E0F8A3E0F9A3E0FAA3E0FB1205
:100D6E0002AC601E401CE4FFFE7D207C41900050D2
:100D7E00E0F8A3E0F9A3E0FAA3E0FB1201068F402E
:100D8E008045E4FFFEFD7C3F900050E0F8A3E0F9C3
:100D9E00A3E0FAA3E0FB1202AC60025036E4FFFEC1
:100DAE00FD7C3F900054E0F8A3E0F9A3E0FAA3E045
:100DBE00FB1202AC601D401B900054E0FCA3E0FD52
:100DCE00A3E0FEA3E0F5408E3F8D3E8C3DE4F5455D
:100DDE00020F2AE4FFFEFD7C3F900054E0F8A3E0F2
:100DEE00F9A3E0FAA3E0FB1202AC60025027E4FF85
:100DFE00FEFD7C3F900058E0F8A3E0F9A3E0FAA3D3
:100E0E00E0FB1202AC600E400CE4FFFE7DC87C429B
:100E1E009000588040E4FFFEFD7C3F900058E0F8C3
:100E2E00A3E0F9A3E0FAA3E0FB1202AC6002503794
:100E3E00E4FFFEFD7C3F90005CE0F8A3E0F9A3E048
:100E4E00FAA3E0FB1202AC601E401CE4FFFE7D2004
:100E5E007C4190005CE0F8A3E0F9A3E0FAA3E0FB8C
:100E6E001201068F40802DE4FFFEFD7C3F90005C5A
:100E7E00E0F8A3E0F9A3E0FAA3E0FB1202AC6005F0
:100E8E004003020F2A90004CE0FCA3E0FDA3E0FE1D
:100E9E00A3E0F5408E3F8D3E8C3D754501807DE58E
:100EAE002D6401702C120003755F00756000756172
:100EBE00267562007563067B007A007956121266FB
:100ECE00EF3395E04F7005752D038050752D028020
:100EDE004BE52D64057045900030E0FCA3E0FDA3CA
:100EEE00E0FEA3E0FFE52225E025E02418F582E4EC
:100EFE003400F58312061C90003012062800000004
:100F0E00000522D3E522940674809480400EE4F509
:100F1E0022F540F53FF53EF53D752D06E4F546F517
:020F2E00472258
:10142D00E54945487034F548754901FF1215398F66
:10143D0036AC36E412032FE4FBFA794C78421202F3
:10144D000FE52C25E025E0244CF582E43400F583EE
:0B145D0012061CD200AF2C12133B2221
:03000B00021106D9
:10110600C0E0C0D075D000C006C0070524E5247035
:10111600020523640A45237004F523F5240555E5E5
:10112600557002055464C845547004F554F55505C8
:1011360049E54970020548643245487004F548F5AA
:1011460049D3E52F9400E52E94004008E52F152F8E
:101156007002152ED3E5479400E54694004008E555
:1011660047154770021546AF2D7E00EF64047029BF
:101176000538E53870020537D394E8E5379403401F
:101186004A052CD3E52C9404748094804003752C76
:10119600007537007538008032EF64054E702CE517
:1011A6002214601514601714601914601B1460185B
:1011B60024057017752C018012752C02800D752C74
:1011C600038008752C048003752C00D007D006D048
:0411D600D0D0E03263
:10154D008E2E8F2FD3E52F9400E52E940050F5228B
:10152400438E805389F0758ACD758CD4C28DD28C4C
:05153400D2A9D2AF2294
:10155D00C2A7C2A68F80D2A51215BDC2A50215BD08
:10156D00D2A7C2A68F80D2A51215BDC2A50215BDE8
:0F157D007F3812155D7F0C12155D7F0602155D1C
:10150D008D60EF64017005E560148004E560243F93
:07151D004480FF12155D225E
:0A15B3008B5C12150DAF5C02156D84
:061468008B5C8A5D895EC9
:10146E00E4F55F12150DE4F55FAB5CAA5DA95E8530
:10147E005F82758300120568FF600712156D055FA8
:02148E0080E7F5
:011490002239
:0414F300AB05A90795
:1014F7007F017E00E4FAEAC39B500AE9FD7C0012F3
:0515070005A70A80F1B8
:01150C0022BC
:0413EC008A0A8B0BD3
:1013F000E4F50E12150D850D0ED3E50E94007480E4
:1014000094804028E50E14FD7F0A1214F3AC0AAD57
:101410000BCFCDCFCECCCE1205B97C007D0A120504
:0C142000B9ED2430FF12156D150E80CDC3
:01142C00229D
:050003007F0102155D04
:0A15A80000007F367EC6DEFEDFFC89
:0115B2002216
:0915BD00007F0B7EBEDEFEDFFCA8
:0115C6002202
:0C159B007F167E037DE3DDFEDEFCDFFA40
:0115A7002221
:1014B800E4FF2092010F2093027F022094027F0311
:0F14C8002095027F042096027F0520B3027F0645
:0114D70022F2
:0F158C00759D01E4F5BD75BC801215BD0215BD3E
:10153900EF4488F5BC00000000E5BC30E4FB53BC77
:04154900EFAFBD2221
:10133B00EF14601214601E14602A14603314603CA6
:10134B002405704C8042300009C2B7D2B4D2B5D25A
:10135B00B622D2B722300009C2B6D2B4D2B5D2B7B8
:10136B0022D2B622300006C2B5D2B4801FD2B5222B
:10137B00300006C2B4D2B58013D2B422300009C2F9
:10138B00B4C2B5C2B6C2B722D2B4D2B5D2B6D2B7F6
:01139B00222F
:10000E00020398E86480F8E933E83360110460F085
:10001E00ED33EC337009E8FCE9FDEAFEEBFF220458
:10002E0060DED3EB9FEA9EE99DE8C2E78CF0C2F753
:10003E0095F0400CE8CCF8E9CDF9EACEFAEBCFFB1F
:10004E0012036385D0F05804700320D5B3E8047012
:10005E00075002B2D50203A292D5EC0460F7E4CCAD
:10006E00C0E0C398F8603B94186008400DD0E0FBE8
:10007E0002037AE4FBFAC9FC8028E830E406E4C9FE
:10008E00FBE4CAFCE830E305E4C9CACBFCE854073C
:10009E006010F8C3E913F9EA13FAEB13FBEC13FC47
:1000AE00D8F130F52FC3E49CFCEF9BFFEE9AFEEDEA
:1000BE0099FDD0E0FBEF4E4D4C701222DB03020394
:1000CE009FEC2CFCEF33FFEE33FEED33FDED30E70E
:1000DE00EB02037AEF2BFFEE3AFEED39FDD0E0FB9B
:1000EE0050130BBB00030203A2ED13FDEE13FEEF44
:0800FE0013FFEC13FC02037A6E
:10010600EC4D6011E8497017ED33EC3304600DE4F3
:10011600FCFFFEFD22E933E8330470F8020398126F
:10012600036358046009E4CC248150062850090270
:1001360003A228400302039FC0E0EB4A7044B98043
:1001460006D0E0FB02038EEF4E701CBD8008EBFF6D
:10015600EAFEE9FD80EBE98DF0A4FEE5F00201EF91
:10016600E9CDF9EAFEEBFFEF89F0A4FCE5F0CE89D4
:10017600F0A42EFFE435F0CD89F0A42DFEE435F091
:100186008067EF4E7005BD80D780C3EF8BF0A4ACBF
:10019600F0EE8BF0A42CFCE435F0F8EF8AF0A42CFA
:1001A600E5F038FCE433CB8DF0A42CFCE5F03BF80D
:1001B600EE8AF0A42CFCE5F038F8E433CF89F0A4FD
:1001C6002CFCE5F038CF3400CE89F0A42FFFE5F003
:1001D6003EFEE433C98DF0A42EFEE5F039CD8AF05B
:1001E600A42FFFE5F03EFEE43DFD33D0E0FB5007D3
:1001F6000BBB000F0203A2EC2CFCEF33FFEE33FE29
:06020600ED33FD02037A56
:10020C000203A2EC5D046005E85904700302039834
:10021C00120363580460F6EC4860F2EC7004FDFEC7
:10022C00FF22C860DB2481C85009C39860025006C5
:10023C0002039F9850CAF582E9294B4A7005AB829C
:10024C0002038E75F0007C1A7880C3EF9BEE9AED5A
:10025C0099400DC3EF9BFFEE9AFEED99FDE842F03D
:10026C00DC23ACF0D0E0FFD0E0FED0E0FDAB822090
:10027C00E7101BEB60BAEC2CFCEF33FFEE33FEED1A
:10028C0033FD02037AE803F830E705C0F075F0009F
:10029C00EF2FFFEE33FEED33FD40B830E7C280AAFE
:1002AC0074F8CC6480CCC86480C8F58204604FC3F9
:1002BC00EB9FF5F0EA9E42F0E99D42F0E89C45F098
:1002CC00603C501DE5825FFFE582D313CB5BCBF422
:1002DC002B5582FB50280ABA002409B9002008804B
:1002EC001DE5825BFBE582D313CF5FCFF4C3132FE5
:1002FC005582FF50090EBE00050DBD00010CC3EB6D
:10030C009FF5F0EA9E42F0E99D42F0E89C45F060D2
:09031C0007CC4820E701B3EC22F4
:1003250075F020800E75F010800575F0087D007E53
:10033500007F003392D530D50312060EEC33401002
:10034500EF33FFEE33FEED33FDEC33FCD5F0ED225C
:0E035500E5F0247EA2D513CC92E7CDCEFF2298
:10068F00E573245FF8E6057322785C300702785F24
:10069F00E475F00112065902054F2000EB7F2ED2B0
:1006AF00008018EF540F2490D43440D4FF30040B43
:1006BF00EF24BFB41A0050032461FFE574600215E4
:1006CF00740577E5777002057630070D785CE47571
:1006DF00F001120659EF0205950214917403D20727
:1006EF008003E4C207F5738B5C8A5D895EE4F57461
:1006FF00F576F577E57460077F201206CA80F575E9
:10070F0075FFC201C200C202C203C205C206C208FF
:10071F00120698FF700D3007057F001206DBAF77CA
:10072F00AE7622B4255FC2D5C204120698FF24D03C
:10073F00B40A00501A75F00A787430D50508B6FF60
:10074F000106C6A426F620D5047002D20380D92450
:10075F00CFB41A00EF5004C2E5D2040209C8D20187
:10076F0080C6D20080C0D20280BCD2D580BAD2055A
:10077F0080B47F201206CA2002077401B5740040AE
:10078F00F112068FFF1206CA020703D208D20680A3
:10079F009512068FFB12068FFA12068FF94A4B70CD
:1007AF000679BF7A0A7BFF20022EE574602A7E004D
:1007BF008E8275830012056860060EEE657570F007
:1007CF00C2D5EBC0E0EAC0E0E9C0E0EE120A28D0E3
:1007DF00E0F9D0E0FAD0E0FB12054FFF60AAEBC0C2
:1007EF00E0EAC0E0E9C0E01206CAD0E02401F9D087
:1007FF00E03400FAD0E0FBE5750460DCD575D980F4
:10080F0087D20280A2120A0B60F7E57570010412FD
:10081F0003ADA975600DE575600914F575120AB27F
:10082F00EF60F3EA30E702F404C3995077EAF42556
:10083F00750430E701E404F575800D120A0B60C1F1
:10084F00EA057525751203ADEA7872F630E701E413
:10085F00257504D5750420050114120A28E4C0E09B
:10086F00120AB27872E6601320E70714F61206B286
:10087F00802204F6D0E014C0E07F001206B2E575C6
:10088F0060071206A91575800B3005031206A9D053
:10089F00E0020703D0E00480C5120A0B60A0E575E3
:1008AF00041203AD7872EAF6E575200502600104C3
:0508BF002404120A28C8
:1008C40074FF04C0E0120AB21206B2E575200502F4
:1008D40060031206A9D0E0B575E87F451206BC781E
:1008E40072E67F2B30E7047F2DF404C0E01206CAC1
:1008F400D0E075F00A84C0F01206B3D0E01206B35B
:10090400020703791080027908C206C2088008D25F
:10091400D5790A8004790AC2D5E575047002F575A3
:10092400E4FAFDFEFF12068FFC7B08200113120679
:100934008FFD7B1030000A12068FFE12068FFF7B9C
:1009440020EC3382D592D55013C3E43000069FFFC8
:10095400E49EFEE42001039DFDE49CFCE4CBF8C28C
:1009640001EC700CCFCECDCCE824F8F870F38017EE
:10097400C3EF33FFEE33FEED33FDEC33FCEB33FB1F
:10098400994002FB0FD8E9EB300105F8D0E0C448E8
:10099400B201C0E00AEC4D4E4F78207B0070C2EAF1
:1009A400B5750040BCC0E0120A2AD0F0D0E02001A6
:1009B40004C4C0E0C4B201C0F01206B3D0F0D5F054
:1009C400EB02070312066907A05309075807714C85
:1009D400076D42090B4F091344091349078643095C
:1009E4001955084A4608A8450814470ADF500775F0
:1009F4002D07792E079C2B077D23079A200AC82AE6
:100A040007354800000794E575B4FF0375750612B1
:100A1400068FFC12068FFD12068FFE12068FFF78DA
:100A24006B0203DC790AA2D5200314300509B9103E
:100A3400020404B9080104A2D520060250010420CE
:100A440002689202B574005034C0E07F203003196C
:100A54007F30A20272067205500F120A81C202C2CE
:100A640006C205C2087F30800F300503E9C0E012DA
:100A740006CA300503D0E0F9D0E0B574CC300517D0
:100A84007F30B9100C1206CA7F583004077F788073
:100A940003B908031206CA3002057F2D0206CA7F75
:100AA400202008F87F2B2006F322920280CF7F00BB
:100AB400B407005005246BF8E6FF22286E756C6CB1
:100AC4002900D20112068F3001F8C201787430D5A2
:100AD4000108F60207352D5043495812068F2403A6
:100AE400B405004001E4900ADA931206BB743A128A
:0A0AF40006BBD20375740402090763
:10036300E9D2E7C933E833F892D5EDD2E7CD33ECE0
:0703730033FC5002B2D52259
:10037A00EC30E7100FBF000C0EBE00080DBD0004E4
:10038A000BEB6014A2D5EB13FCED92E7FD2274FF90
:10039A00FCFDFEFF22E480F8A2D574FF13FC7D80E9
:0303AA00E480EFFD
:1003AD00F920E72824F950037907E4F42402FB1817
:1003BD00DBFDE624FB5014E9600DE4F618E604F6C7
:0F03CD00B40A08E4F6D9F57401F60A22C2D52263
:1003DC00ED33EC3392D5FA602AB4FF33EDC2E77BF0
:1003EC00FF60067A047901E4227A04790A20D504A4
:1003FC007A047905224E614E002B494E46002D4958
:10040C004E4600E47A08F608DAFC7B00740722E812
:10041C00C0E0ECC0E0EDC0E0EEC0E0EFC0E0EA759B
:10042C00F010A4CAABF075F04DA42BFBE435F0FC36
:10043C00EA2410FAEB34C5FBEC34D9FCEDC2E7FF2F
:10044C0075F056A4F42411C5F0F434C58FF0A42A29
:10045C00E5F03BE43CF620E71412050FD0E0FFD0AA
:10046C00E0FED0E0FDD0E0FC12020F8014F4041288
:10047C00050FD0E0FFD0E0FED0E0FDD0E0FC120193
:10048C0006D0E0F8E6FAEDD2E7CD33EC332482FB6C
:10049C00E4C3CF33CFCE33CECD33CD33DBF37B07B9
:1004AC0075F00A846004F6081B0AE5F0F6088FF074
:1004BC00740AA4FFACF08EF0740AA42CFEACF050BD
:1004CC00010C8DF0740AA42CFDE435F0F608DBDE8B
:0304DC0074072280
:1004DF003F8000004120000042C80000447A000025
:1004EF00461C400047C35000497424004B189680A7
:1004FF004CBEBC205A0E1BCA6753C21C749DC5AE9E
:10050F00FB60065407601C232312053DEB54386033
:10051F0009120529120538120106ECF8EDF9EEFA69
:10052F00EFCB22EB12053880F1543803241C9004D2
:10053F00DFFE93FC0EEE93FD0EEE930ECE93FF2295
:030000000211DA10
:0C11DA00787FE4F6D8FD758177021221C1
:10054F00BB010689828A83E0225002E722BBFE02AA
:09055F00E32289828A83E49322DD
:10056800BB010CE58229F582E5833AF583E0225048
:1005780006E92582F8E622BBFE06E92582F8E22292
:0D058800E58229F582E5833AF583E49322AC
:10059500BB010689828A83F0225002F722BBFE0145
:0205A500F3223F
:1005A700EF8DF0A4A8F0CF8CF0A428CE8DF0A42E68
:0205B700FE2222
:1005B900BC000BBE0029EF8DF084FFADF022E4CC26
:1005C900F875F008EF2FFFEE33FEEC33FCEE9DECEF
:1005D900984005FCEE9DFE0FD5F0E9E4CEFD22ED35
:1005E900F8F5F0EE8420D21CFEADF075F008EF2F7F
:1005F900FFED33FD4007985006D5F0F222C398FD70
:050609000FD5F0EA220C
:0E060E00C3E49FFFE49EFEE49DFDE49CFC22FD
:0C061C00ECF0A3EDF0A3EEF0A3EFF02251
:10062800A8828583F0D083D08212063F12063F123B
:10063800063F12063FE473E493A3C583C5F0C58360
:10064800C8C582C8F0A3C583C5F0C583C8C582C81C
:01065800227F
:10065900FAE6FB0808E6F925F0F618E6CA3AF622A2
:10066900D083D082F8E4937012740193700DA3A320
:1006790093F8740193F5828883E473740293686034
:06068900EFA3A3A380DF34
:10149100EFB40A07740D12149C740A309811A899BC
:1014A100B8130CC2983098FDA899C298B811F630BB
:0714B10099FDC299F5992293
:101266008B5C8A5D895EAB5FAA60A96112054FFE41
:10127600AB5CAA5DA95E12054FFF6E702BEF600D89
:10128600E56315637002156214456270037F0022E0
:101296007401255EF55EE4355DF55D74012561F545
:1012A60061E43560F56080BEAB5CAA5DA95E12059F
:1012B6004FFDD3EE6480F8ED64809840037F0122F1
:0F12C600AB5FAA60A96112054FFFC3ED9FFF2226
:1011E6000214D8E493A3F8E493A34003F68001F233
:1011F60008DFF48029E493A3F85407240CC8C3330A
:10120600C4540F4420C8834004F456800146F6DFD8
:10121600E4800B01020408102040809012D5E47E81
:10122600019360BCA3FF543F30E509541FFEE493CD
:10123600A360010ECF54C025E060A840B8E493A394
:10124600FAE493A3F8E493A3C8C582C8CAC583CABF
:10125600F0A3C8C582C8CAC583CADFE9DEE780BE77
:01133A0000B2
:00000001FF
