:100459005072657373204F4B20537461727421007D
:10046900496E7075742050617373776F72640045BB
:0B04790052524F5200524947485400B5
:10042B000216000002180000011100011505020858
:10043B000000022300000625303030303030060B30
:0D044B00383736353433011400021A000032
:100511001204FE120553C2B6D2AF12000E12010729
:0205210080F860
:10010700E524452360030201D2F523752401E51197
:1001170070317F0C1205337BFF7A0479597D017F9B
:1001270001120484752F00753004AB1BAA1A7D01D8
:100137007F021203EA752F00753004AB1EAA1D7DDE
:10014700088048E5116401701E7F0F1205337BFF9D
:100157007A0479697D027F011204847B007A007931
:10016700257D067F028040E511640270257F0C1211
:1001770005337BFF7A0479787D067F011204847545
:100187002F00753004AB13AA127D017F021203EA18
:100197008018E511640370127F0C1205337BFF7A18
:1001A70004797E7D067F01120484AF11EF6402603B
:1001B70005EF6403700D7F2C7E01120523120003E7
:0C01C700E4F511E51524C0FF12053322F9
:10000E00E50945086003020106F5087509011204A9
:10001E00AD8F1CE51C6520FF551CF51FE51CF45F1C
:10002E00F50A851C20E51F6006751D07751ED0E5B7
:10003E00206025E51E451D701F120003751101E499
:10004E00F514D3E514940574809480500B74252513
:10005E0014F87630051480EAE51E451D7003020182
:10006E0006E50A24FE6016146028146038146047F2
:10007E0014605624056003020106D2A222742025C4
:10008E0015F80674202515F8E6D3943940657639AF
:10009E00806174202515F81674202515F8E6B42F06
:1000AE00027630804E1515D3E51594057480948034
:1000BE005003751505803C0515C3E515940A74802B
:1000CE009480400375150A802A120003752E007560
:1000DE002F0075300B7531007532067B007A007972
:1000EE002512037BEF3395E04F70057511038003E6
:0900FE00751102E4F51DF51E2246
:03000B0002030CE1
:10030C00C0E0C0D00509E50970020508640A45087B
:10031C007004F508F5090524E5247002052364C86A
:10032C0045237004F523F524D3E5139400E51294CA
:10033C00004008E513151370021512D3E51E940046
:10034C00E51D94004008E51E151E7002151D0522C2
:10035C00E52270020521C394E8E5219403400BA229
:0F036C00A2B392A2752100752200D0D0D0E0324A
:100523008E128F13D3E5139400E512940050F52235
:1004FE00438E805389F0758ACD758CD4C28DD28C83
:03050E00D2A9224D
:10053300C2A7C2A68F80D2A5120584C2A5020584D4
:10054300D2A7C2A68F80D2A5120584C2A5020584B4
:0F0553007F381205337F0C1205337F0602053304
:1004E7008D32EF64017005E532148004E532243F54
:0704F7004480FF12053322CF
:0A057A008B331204E7AF3302054390
:060484008B2B8A2C892D50
:10048A00E4F52E1204E7E4F52EAB2BAA2CA92D8550
:10049A002E827583001201D3FF6007120543052ED1
:0204AA0080E7E9
:0104AC00222D
:0404CD00AB05A907CB
:1004D1007F017E00E4FAEAC39B500AE9FD7C001229
:0504E10002000A80F199
:0104E60022F3
:0403EA008A2D8B2E9F
:1003EE00E4F5311204E7853031D3E53194007480A1
:1003FE0094804028E53114FD7F0A1204CDAC2DAD5A
:10040E002ECFCDCFCECCCE1202127C007D0A1202A0
:0C041E0012ED2430FF120543153180CD93
:01042A0022AF
:050003007F010205333E
:0A056F0000007F367EC6DEFEDFFCD2
:01057900225F
:09058400007F0B7EBEDEFEDFFCF1
:01058D00224B
:0C0562007F167E037DE3DDFEDEFCDFFA89
:01056E00226A
:1004AD00E4FF2092010F2093027F022094027F032C
:0F04BD002095027F042096027F0520B3027F0660
:0104CC00220D
:0300000002028079
:0C028000787FE4F6D8FD7581330202C7D8
:1001D300BB010CE58229F582E5833AF583E02250E1
:1001E30006E92582F8E622BBFE06E92582F8E2222B
:0D01F300E58229F582E5833AF583E4932245
:10020000EF8DF0A4A8F0CF8CF0A428CE8DF0A42E12
:02021000FE22CC
:10021200BC000BBE0029EF8DF084FFADF022E4CCD0
:10022200F875F008EF2FFFEE33FEEC33FCEE9DEC99
:10023200984005FCEE9DFE0FD5F0E9E4CEFD22EDDF
:10024200F8F5F0EE8420D21CFEADF075F008EF2F29
:10025200FFED33FD4007985006D5F0F222C398FD1A
:050262000FD5F0EA22B7
:10037B008B2B8A2C892DAB2EAA2FA930120267FE4C
:10038B00AB2BAA2CA92D120267FF6E702BEF600D01
:10039B00E53215327002153114453170037F00229E
:1003AB007401252DF52DE4352CF52C74012530F534
:1003BB0030E4352FF52F80BEAB2BAA2CA92D1202C2
:1003CB0067FDD3EE6480F8ED64809840037F0122D3
:0F03DB00AB2EAA2FA930120267FFC3ED9FFF229E
:10028C00020511E493A3F8E493A34003F68001F272
:10029C0008DFF48029E493A3F85407240CC8C33373
:1002AC00C4540F4420C8834004F456800146F6DF42
:1002BC00E4800B010204081020408090042BE47EA3
:1002CC00019360BCA3FF543F30E509541FFEE49337
:1002DC00A360010ECF54C025E060A840B8E493A3FE
:1002EC00FAE493A3F8E493A3C8C582C8CAC583CA29
:1002FC00F0A3C8C582C8CAC583CADFE9DEE780BEE1
:0104580000A3
:10026700BB010689828A83E0225002E722BBFE0295
:09027700E32289828A83E49322C8
:00000001FF
