:100E500025332E3266005072657373204F4B20533A
:100E6000746172742100496E7075742050617373DF
:100E7000776F7264004552524F52005249474854AE
:100E800000576169742E2E2E005072657373204FC7
:090E90004B20456E64007546001C
:100EDA0002220000024E0000024400000235000017
:100EEA0002370000024C0001044830303030012B38
:100EFA0000012F05065030303030303006253130B1
:070F0A0030303030012E00F1
:100F8200120FCF121028121037D2B7D2B6D2B5D262
:0C0F9200B4120A7F120B9B120DF080F5C8
:100B9B00E54F454E6003020C8FF54E754F01E52B6B
:100BAB0070557559FF755A0E755B50853C5F853BCB
:100BBB005E853A5D85395CFB7A00794812066C7F5D
:100BCB000C1210087BFF7A0E79567D017F01120FF4
:100BDB0012AB487D017F0212105EAB497D027F0292
:100BEB0012105EAB4A7D037F0212105EAB4B7D048D
:100BFB007F0212105E806CE52B6401701C7F0F125C
:100C0B0010087BFF7A0E79667D027F01120F127B33
:100C1B00007A0079507D068045E52B6402700D7FCC
:100C2B000C1210087BFF7A0E79758011E52B64038B
:100C3B0070117F0C1210087BFF7A0E797B7D067F7B
:100C4B0001801DE52B6404701A7BFF7A0E79817D80
:100C5B00017F01120F127BFF7A0E79897D017F02D2
:100C6B00120F12AF2BEF64026005EF6403700D7F60
:100C7B00D07E07120FF8120003E4F52BE52F24C0EA
:050C8B00FF1210082219
:100A7F00E52345226003020B9AF522752301120F1D
:100A8F00628F3FE53F6547FF553FF546E53FF45F12
:100A9F00F524853F47E54660067542077543D0E567
:100AAF00476025E5434542701F120003752B01E493
:100ABF00F52ED3E52E940574809480500B74502539
:100ACF002EF87630052E80EAE54345427003020B7F
:100ADF009AE52424FE6016146029146039146048C6
:100AEF0014605724056003020B9A020B95744B2573
:100AFF002FF806744B252FF8E6D394394002763938
:100B0F00020B95744B252FF816744B252FF8E6B46E
:100B1F002F0276308070152FD3E52F9405748094B3
:100B2F00805003752F05805E052FC3E52F940A743F
:100B3F008094804003752F0A804CE52B700A1200B9
:100B4F0003752B04C2B7803EE52B640470081200B6
:100B5F0003E4F52B8030E52B6401702A1200037536
:100B6F005900755A00755B25755C00755D067B0035
:100B7F007A007950120D1CEF3395E04F7005752BED
:0C0B8F00038003752B02E4F542F54322BD
:100DF000E54545447059F544754501E52B6404709B
:100E00004E7F64FE120FF8E4FF120FE48F34AC340F
:100E1000E41200B8E4FBFA794C78421200118F33E7
:100E20008E328D318C301200ECD3EF648094804090
:100E30001E85333C85323B85313A8530397559FF03
:100E4000755A0E755B967B007A00794012066C220B
:03000B00020D8B58
:100D8B00C0E0C0D00523E52370020522640A45228A
:100D9B007004F522F523054FE54F7002054E64C82C
:100DAB00454E7004F54EF54F0545E545700205447B
:100DBB00640A45447004F544F545D3E52D9400E5EC
:100DCB002C94004008E52D152D7002152CD3E5430E
:100DDB009400E54294004008E54315437002154228
:050DEB00D0D0D0E03281
:100FF8008E2C8F2DD3E52D9400E52C940050F522EE
:100FCF00438E805389F0758ACD758CD4C28DD28CA7
:050FDF00D2A9D2AF22EF
:10100800C2A7C2A68F80D2A5121068C2A502106816
:10101800D2A7C2A68F80D2A5121068C2A5021068F6
:0F1028007F381210087F0C1210087F0602100884
:100FB8008D5AEF64017005E55A148004E55A243F00
:070FC8004480FF1210082213
:0A105E008B56120FB8AF560210189F
:060F12008B568A57895836
:100F1800E4F559120FB8E4F559AB56AA57A9588504
:100F28005982758300120526FF60071210180559AB
:020F380080E750
:010F3A002294
:040F9E00AB05A907EF
:100FA2007F017E00E4FAEAC39B500AE9FD7C00124D
:050FB20005650A80F155
:010FB7002217
:040E99008A0A8B0B2B
:100E9D00E4F50E120FB8850D0ED3E50E9400748097
:100EAD0094804028E50E14FD7F0A120F9EAC0AAD0A
:100EBD000BCFCDCFCECCCE1205777C007D0A12059F
:0C0ECD0077ED2430FF121018150E80CDB8
:010ED90022F6
:050003007F010210085E
:0A10530000007F367EC6DEFEDFFCE3
:01105D002270
:09106800007F0B7EBEDEFEDFFC02
:01107100225C
:0C1046007F167E037DE3DDFEDEFCDFFA9A
:01105200227B
:100F6200E4FF2092010F2093027F022094027F036C
:0F0F72002095027F042096027F0520B3027F06A0
:010F8100224D
:0F103700759D01E4F5BD75BC801210680210684C
:100FE400EF4488F5BC00000000E5BC30E4FB53BCD2
:040FF400EFAFBD227C
:10000E00020162EC5D046005E859047003020158B8
:10001E00120123580460F6EC4860F2EC7004FDFE09
:10002E00FF22C860DB2481C85009C39860025006C5
:10003E0002015F9850CAF582E9294B4A7005AB82DE
:10004E0002014E75F0007C1A7880C3EF9BEE9AED9C
:10005E0099400DC3EF9BFFEE9AFEED99FDE842F03D
:10006E00DC23ACF0D0E0FFD0E0FED0E0FDAB822090
:10007E00E7101BEB60BAEC2CFCEF33FFEE33FEED1A
:10008E0033FD02013AE803F830E705C0F075F000E1
:10009E00EF2FFFEE33FEED33FD40B830E7C280AAFE
:1000AE0075F020800E75F010800575F0087D007ECD
:1000BE00007F003392D530D5031205CCEC334010BF
:1000CE00EF33FFEE33FEED33FDEC33FCD5F0ED22D6
:0E00DE00E5F0247EA2D513CC92E7CDCEFF2212
:1000EC00EDD2E7CD33EC3392D524814006E4FFFE0C
:1000FC00FDFC22FCE4CFCECDCC24E0501174FF806B
:10010C00EDC3CC13CCCD13CDCE13CECF13CF047007
:07011C00F030D5DE0205CC36
:10061000E56D2459F8E6056D2278563007027859C1
:10062000E475F0011205DA02050D2000EB7F2ED2F1
:10063000008018EF540F2490D43440D4FF30040BC2
:10064000EF24BFB41A0050032461FFE56E60021569
:100650006E0571E5717002057030070D7856E4750E
:10066000F0011205DAEF020553020F3B7403D207C3
:100670008003E4C207F56D8B568A578958E4F56EFE
:10068000F570F571E56E60077F2012064B80F575F9
:100690006FFFC201C200C202C203C205C206C20885
:1006A000120619FF700D3007057F0012065CAF714E
:1006B000AE7022B4255FC2D5C204120619FF24D041
:1006C000B40A00501A75F00A786E30D50508B6FFE6
:1006D0000106C6A426F620D5047002D20380D924D0
:1006E000CFB41A00EF5004C2E5D204020949D20186
:1006F00080C6D20080C0D20280BCD2D580BAD205DA
:1007000080B47F2012064B2002077401B56E0040B2
:10071000F1120610FF12064B020684D208D20680A0
:1007200095120610FB120610FA120610F94A4B70C9
:100730000679407A0A7BFF20022EE56E602A7E0051
:100740008E8275830012052660060EEE656F70F0CE
:10075000C2D5EBC0E0EAC0E0E9C0E0EE1209A9D0E2
:10076000E0F9D0E0FAD0E0FB12050DFF60AAEBC083
:10077000E0EAC0E0E9C0E012064BD0E02401F9D085
:10078000E03400FAD0E0FBE56F0460DCD56FD9807F
:1007900087D20280A212098C60F7E56F7001041203
:1007A000016DA96F600DE56F600914F56F120A33D2
:1007B000EF60F3EA30E702F404C3995077EAF425D6
:1007C0006F0430E701E404F56F800D12098C60C1FD
:1007D000EA056F256F12016DEA786CF630E701E4E7
:1007E000256F04D56F04200501141209A9E4C0E0A7
:1007F000120A33786CE6601320E70714F61206330A
:10080000802204F6D0E014C0E07F00120633E56FCA
:10081000600712062A156F800B30050312062AD0D6
:10082000E0020684D0E00480C512098C60A0E56F68
:100830000412016D786CEAF6E56F20050260010490
:0508400024041209A9C7
:1008450074FF04C0E0120A33120633E56F20050277
:10085500600312062AD0E0B56FE87F4512063D78A1
:100865006CE67F2B30E7047F2DF404C0E012064BC5
:10087500D0E075F00A84C0F0120634D0E0120634D8
:10088500020684791080027908C206C2088008D25F
:10089500D5790A8004790AC2D5E56F047002F56F2F
:1008A500E4FAFDFEFF120610FC7B08200113120678
:1008B50010FD7B1030000A120610FE120610FF7B99
:1008C50020EC3382D592D55013C3E43000069FFF48
:1008D500E49EFEE42001039DFDE49CFCE4CBF8C20C
:1008E50001EC700CCFCECDCCE824F8F870F380176E
:1008F500C3EF33FFEE33FEED33FDEC33FCEB33FB9F
:10090500994002FB0FD8E9EB300105F8D0E0C44867
:10091500B201C0E00AEC4D4E4F78207B0070C2EA70
:10092500B56F0040BCC0E01209ABD0F0D0E02001AB
:1009350004C4C0E0C4B201C0F0120634D0F0D5F052
:10094500EB0206841205EA07215308885806F24C83
:1009550006EE42088C4F089444089449070743085B
:100965009A5507CB460829450795470A605006F66C
:100975002D06FA2E071D2B06FE23071B200A492AE2
:1009850006B64800000715E56FB4FF03756F06123C
:100995000610FC120610FD120610FE120610FF7856
:1009A5006502019C790AA2D5200314300509B91006
:1009B500020404B9080104A2D5200602500104204E
:1009C50002689202B56E005034C0E07F20300319F2
:1009D5007F30A20272067205500F120A02C202C2CD
:1009E50006C205C2087F30800F300503E9C0E0125A
:1009F500064B300503D0E0F9D0E0B56ECC300517D5
:100A05007F30B9100C12064B7F583004077F788071
:100A150003B9080312064B3002057F2D02064B7FF2
:100A2500202008F87F2B2006F322920280CF7F003A
:100A3500B4070050052465F8E6FF22286E756C6C36
:100A45002900D2011206103001F8C201786E30D5A6
:100A55000108F60206B62D50434958120610240324
:100A6500B405004001E4900A5B9312063C743A1207
:0A0A7500063CD203756E04020888E7
:10012300E9D2E7C933E833F892D5EDD2E7CD33EC22
:0701330033FC5002B2D5229B
:10013A00EC30E7100FBF000C0EBE00080DBD000426
:10014A000BEB6014A2D5EB13FCED92E7FD2274FFD2
:10015A00FCFDFEFF22E480F8A2D574FF13FC7D802B
:03016A00E480EF3F
:10016D00F920E72824F950037907E4F42402FB1859
:10017D00DBFDE624FB5014E9600DE4F618E604F609
:0F018D00B40A08E4F6D9F57401F60A22C2D522A5
:10019C00ED33EC3392D5FA602AB4FF33EDC2E77B32
:1001AC00FF60067A0179C1E4227A0179CA20D5046C
:1001BC007A0179C5224E614E002B494E46002D49DD
:1001CC004E4600E47A08F608DAFC7B00740722E855
:1001DC00C0E0ECC0E0EDC0E0EEC0E0EFC0E0EA75DE
:1001EC00F010A4CAABF075F04DA42BFBE435F0FC79
:1001FC00EA2410FAEB34C5FBEC34D9FCEDC2E7FF72
:10020C0075F056A4F42411C5F0F434C58FF0A42A6B
:10021C00E5F03BE43CF620E7141204CDD0E0FFD02F
:10022C00E0FED0E0FDD0E0FC1200118014F40412CA
:10023C0004CDD0E0FFD0E0FED0E0FDD0E0FC120316
:10024C0097D0E0F8E6FAEDD2E7CD33EC332482FB1D
:10025C00E4C3CF33CFCE33CECD33CD33DBF37B07FB
:10026C0075F00A846004F6081B0AE5F0F6088FF0B6
:10027C00740AA4FFACF08EF0740AA42CFEACF050FF
:10028C00010C8DF0740AA42CFDE435F0F608DBDECD
:03029C00740722C2
:10029F00020158E86480F8E933E83360110460F034
:1002AF00ED33EC337009E8FCE9FDEAFEEBFF2204C5
:1002BF0060DED3EB9FEA9EE99DE8C2E78CF0C2F7C0
:1002CF0095F0400CE8CCF8E9CDF9EACEFAEBCFFB8C
:1002DF0012012385D0F05804700320D5B3E80470C1
:1002EF00075002B2D502016292D5EC0460F7E4CC5C
:1002FF00C0E0C398F8603B94186008400DD0E0FB55
:10030F0002013AE4FBFAC9FC8028E830E406E4C9AC
:10031F00FBE4CAFCE830E305E4C9CACBFCE85407A8
:10032F006010F8C3E913F9EA13FAEB13FBEC13FCB3
:10033F00D8F130F52FC3E49CFCEF9BFFEE9AFEED56
:10034F0099FDD0E0FBEF4E4D4C701222DB03020102
:10035F005FEC2CFCEF33FFEE33FEED33FDED30E7BA
:10036F00EB02013AEF2BFFEE3AFEED39FDD0E0FB49
:10037F0050130BBB0003020162ED13FDEE13FEEFF2
:08038F0013FFEC13FC02013A1C
:10039700EC4D6011E8497017ED33EC3304600DE460
:1003A700FCFFFEFD22E933E8330470F8020158121E
:1003B700012358046009E4CC24815006285009021F
:1003C700016228400302015FC0E0EB4A7044B98034
:1003D70006D0E0FB02014EEF4E701CBD8008EBFF1C
:1003E700EAFEE9FD80EBE98DF0A4FEE5F00204806A
:1003F700E9CDF9EAFEEBFFEF89F0A4FCE5F0CE8941
:10040700F0A42EFFE435F0CD89F0A42DFEE435F0FD
:100417008067EF4E7005BD80D780C3EF8BF0A4AC2B
:10042700F0EE8BF0A42CFCE435F0F8EF8AF0A42C66
:10043700E5F038FCE433CB8DF0A42CFCE5F03BF879
:10044700EE8AF0A42CFCE5F038F8E433CF89F0A469
:100457002CFCE5F038CF3400CE89F0A42FFFE5F06F
:100467003EFEE433C98DF0A42EFEE5F039CD8AF0C7
:10047700A42FFFE5F03EFEE43DFD33D0E0FB50073F
:100487000BBB000F020162EC2CFCEF33FFEE33FED7
:06049700ED33FD02013A05
:10049D003F8000004120000042C80000447A000067
:1004AD00461C400047C35000497424004B189680E9
:1004BD004CBEBC205A0E1BCA6753C21C749DC5AEE0
:1004CD00FB60065407601C23231204FBEB543860B9
:1004DD00091204E71204F6120397ECF8EDF9EEFA9F
:1004ED00EFCB22EB1204F680F1543803241C900458
:1004FD009DFE93FC0EEE93FD0EEE930ECE93FF221A
:03000000020C905F
:0C0C9000787FE4F6D8FD758171020CD766
:10050D00BB010689828A83E0225002E722BBFE02EC
:09051D00E32289828A83E493221F
:10052600BB010CE58229F582E5833AF583E022508A
:1005360006E92582F8E622BBFE06E92582F8E222D4
:0D054600E58229F582E5833AF583E49322EE
:10055300BB010689828A83F0225002F722BBFE0187
:02056300F32281
:10056500EF8DF0A4A8F0CF8CF0A428CE8DF0A42EAA
:02057500FE2264
:10057700BC000BBE0029EF8DF084FFADF022E4CC68
:10058700F875F008EF2FFFEE33FEEC33FCEE9DEC31
:10059700984005FCEE9DFE0FD5F0E9E4CEFD22ED77
:1005A700F8F5F0EE8420D21CFEADF075F008EF2FC1
:1005B700FFED33FD4007985006D5F0F222C398FDB2
:0505C7000FD5F0EA224F
:0E05CC00C3E49FFFE49EFEE49DFDE49CFC2240
:1005DA00FAE6FB0808E6F925F0F618E6CA3AF62222
:1005EA00D083D082F8E4937012740193700DA3A3A0
:1005FA0093F8740193F5828883E4737402936860B4
:06060A00EFA3A3A380DFB3
:100F3B00EFB40A07740D120F46740A309811A89972
:100F4B00B8130CC2983098FDA899C298B811F63016
:070F5B0099FDC299F59922EE
:100D1C008B568A578958AB59AA5AA95B12050DFEF6
:100D2C00AB56AA57A95812050DFF6E702BEF600D2C
:100D3C00E55D155D7002155C14455C70037F002247
:100D4C0074012558F558E43557F5577401255BF5B2
:100D5C005BE4355AF55A80BEAB56AA57A958120512
:100D6C000DFDD3EE6480F8ED64809840037F012282
:0F0D7C00AB59AA5AA95B12050DFFC3ED9FFF22C9
:100C9C00020F82E493A3F8E493A34003F68001F2DD
:100CAC0008DFF48029E493A3F85407240CC8C33359
:100CBC00C4540F4420C8834004F456800146F6DF28
:100CCC00E4800B0102040810204080900EDAE47ED0
:100CDC00019360BCA3FF543F30E509541FFEE4931D
:100CEC00A360010ECF54C025E060A840B8E493A3E4
:100CFC00FAE493A3F8E493A3C8C582C8CAC583CA0F
:100D0C00F0A3C8C582C8CAC583CADFE9DEE780BEC6
:010F110000DF
:00000001FF
