:0701B60048656C6C6F21002D
:10011B00C2A212014AC2B77BFF7A0179B67D027F78
:08012B00021200D8C29280EF1D
:10015E00C2A7C2A68F80D2A51201ACC2A50201AC65
:10016E00D2A7C2A68F80D2A51201ACC2A50201AC45
:10014A007F3812015E7F0C12015E7F0612015E7F0C
:04015A000102015E3F
:100133008D13EF64017005E513148004E513243F68
:070143004480FF12015E225F
:0A01A2008B14120133AF1402016E3A
:0600D8008B0F8A10891154
:1000DE00E4F512120133E4F512AB0FAA10A9118543
:1000EE001282758300120003FF600712016E051263
:0200FE0080E799
:0101000022DC
:04010100AB05A9079A
:100105007F017E00E4FAEAC39B500AE9FD7C0012F8
:0501150000300A80F13A
:01011A0022C2
:040097008A0A8B0B3B
:10009B00E4F50E120133850D0ED3E50E940074803A
:1000AB0094804028E50E14FD7F0A120101AC0AADC5
:1000BB000BCFCDCFCECCCE1200427C007D0A1200EE
:0C00CB0042ED2430FF12016E150E80CDB6
:0100D7002206
:0A01970000007F367EC6DEFEDFFCAE
:0101A100223B
:0901AC00007F0B7EBEDEFEDFFCCD
:0101B5002227
:0C017E007F167E037DE3DDFEDEFCDFFA71
:01018A002252
:0300000002018B6F
:0C018B00787FE4F6D8FD75811402011B9A
:10000300BB010CE58229F582E5833AF583E02250B2
:1000130006E92582F8E622BBFE06E92582F8E222FC
:0D002300E58229F582E5833AF583E4932216
:10003000EF8DF0A4A8F0CF8CF0A428CE8DF0A42EE4
:02004000FE229E
:10004200BC000BBE0029EF8DF084FFADF022E4CCA2
:10005200F875F008EF2FFFEE33FEEC33FCEE9DEC6B
:10006200984005FCEE9DFE0FD5F0E9E4CEFD22EDB1
:10007200F8F5F0EE8420D21CFEADF075F008EF2FFB
:10008200FFED33FD4007985006D5F0F222C398FDEC
:050092000FD5F0EA2289
:00000001FF
