:101108002530362E3266005072657373204F4B209F
:10111800537461727421007546006E460070460073
:10112800496E7075742050617373776F72640045EF
:1011380052524F5200524947485400576169742E21
:101148002E2E005072657373204F4B20456E64003D
:10119900022200000252000002460000023800004C
:1011A900023A00000250000102360000064A3030BF
:1011B90030303030012C00013005065430303030E9
:0D11C90030300625313030303030012F003D
:101247001212931212EC1212FBC201E4FF1210AE3B
:0B125700120ACD120D26120F1F80F5A9
:100D2600E55345526003020E56F552755301E52C04
:100D36006003020DC9755DFF755E11755F08853F1D
:100D460063853E62853D61853C60FB7A00794A1287
:100D560006BA7F0C1212CC7BFF7A11790F7D017FC8
:100D6600011211D7AB4A7D017F02121322AB4B7DD4
:100D7600027F02121322AB4C7D037F02121322ABB9
:100D86004D7D047F02121322AB4E7D057F021213A6
:100D960022AB4F7D067F02121322E5431460121424
:100DA600601724026003020E357BFF7A11791F80DB
:100DB6000E7BFF7A11792280067BFF7A1179257DD9
:100DC600078067E52C6401701C7F0F1212CC7BFF35
:100DD6007A1179287D027F011211D77B007A00797A
:100DE600547D068045E52C6402700D7F0C1212CCF2
:100DF6007BFF7A1179378011E52C640370117F0C23
:100E06001212CC7BFF7A11793D7D067F01801DE5AC
:100E16002C6404701A7BFF7A1179437D017F0112DD
:100E260011D77BFF7A11794B7D017F021211D7AF63
:100E36002CEF64026005EF6403700D7FD07E07120D
:100E460012BC120003E4F52CE53024C0FF1212CCCC
:010E56002279
:100ACD00E52345226003020D25F52275230112123F
:100ADD00278F42E5426549FF5542F548E542F45FEF
:100AED00F524854249E54860067544077545D0E50E
:100AFD00496025E5454544701F120003752C01E43E
:100B0D00F52FD3E52F940574809480500B745425E4
:100B1D002FF87630052F80EAE54545447003020D28
:100B2D0025E52424FE601614602914603A14604AE9
:100B3D0014605A24056003020D25020D20744F2503
:100B4D0030F806744F2530F8E6D3943940027639E3
:100B5D00020D20744F2530F816744F2530F8E6B489
:100B6D002F027630020D201530D3E53094057480B8
:100B7D0094805003753005020D200530C3E5309487
:100B8D000A74809480400375300A020D20E52C70A4
:100B9D0009120003752C04020D20E52C640460037A
:100BAD00020CF0120003E4F52CF53FF53EF53DF592
:100BBD003CFFFE7DA07C40900000E0F8A3E0F9A38F
:100BCD00E0FAA3E0FB1201B45036E4FFFEFD7C3FDA
:100BDD00900000E0F8A3E0F9A3E0FAA3E0FB120116
:100BED00B4601D401B900000E0FCA3E0FDA3E0FEFF
:100BFD00A3E0F53F8E3E8D3D8C3CE4F543020D2088
:100C0D00E4FFFEFD7C3F900000E0F8A3E0F9A3E0D7
:100C1D00FAA3E0FB1201B460025027E4FFFEFD7C55
:100C2D003F900004E0F8A3E0F9A3E0FAA3E0FB1283
:100C3D0001B4600E400CE4FFFE7DC87C42900004C0
:100C4D008040E4FFFEFD7C3F900004E0F8A3E0F956
:100C5D00A3E0FAA3E0FB1201B460025037E4FFFEFB
:100C6D00FD7C3F900008E0F8A3E0F9A3E0FAA3E0D3
:100C7D00FB1201B4601E401CE4FFFE7D207C419000
:100C8D000008E0F8A3E0F9A3E0FAA3E0FB12000EE0
:100C9D008F3F8044E4FFFEFD7C3F900008E0F8A309
:100CAD00E0F9A3E0FAA3E0FB1201B460025064E4A2
:100CBD00FFFEFDFC90000CE0F8A3E0F9A3E0FAA321
:100CCD00E0FB1201B4604C404A90000CE0FCA3E044
:100CDD00FDA3E0FEA3E0F53F8E3E8D3D8C3C7543BC
:100CED00018030E52C6401702A120003755D0075DA
:100CFD005E00755F257560007561067B007A007971
:100D0D005412103FEF3395E04F7005752C0380039F
:090D1D00752C02E4F544F54522B1
:100F1F00E54745466003020FB2F546754701E52BDD
:100F2F006401701BFF1212A88F35AC35E412023723
:100F3F00E4FBFA794C78421201179000008061E5CA
:100F4F002B6402701BFF1212A88F35AC35E412020E
:100F5F0037E4FBFA794C7842120117900004804075
:100F6F00E52B6403701BFF1212A88F35AC35E4120A
:100F7F000237E4FBFA794C7842120117900008808F
:100F8F001FE52B6404701CFF1212A88F35AC35E4DB
:100F9F00120237E4FBFA794C784212011790000CD9
:040FAF0012061C22E8
:03000B00020E578B
:100E5700C0E0C0F0C083C082C0D075D000C000C061
:100E670001C002C003C004C005C006C0070523E5D2
:100E77002370020522640A45227004F522F5230532
:100E870053E5537002055264C845527004F552F594
:100E9700530547E54770020546640A45467004F561
:100EA70046F547D3E52E9400E52D94004008E52E3E
:100EB700152E7002152DD3E5459400E544940040A6
:100EC70008E545154570021544E52C6404702E05A8
:100ED70037E53770020536D394E8E53694034016B4
:100EE700052BD3E52B9404748094804003752B0164
:100EF700753600753700D201AF2B1210AED007D070
:100F070006D005D004D003D002D001D000D0D0D075
:080F170082D083D0F0D0E0325B
:1012BC008E2D8F2ED3E52E9400E52D940050F52223
:10129300438E805389F0758ACD758CD4C28DD28CE0
:0512A300D2A9D2AF2228
:1012CC00C2A7C2A68F80D2A512132CC2A502132CC2
:1012DC00D2A7C2A68F80D2A512132CC2A502132CA2
:0F12EC007F381212CC7F0C1212CC7F060212CC6C
:10127C008D5EEF64017005E55E148004E55E243F2D
:07128C004480FF1212CC2286
:0A1322008B5A12127CAF5A0212DC43
:0611D7008B5A8A5B895C63
:1011DD00E4F55D12127CE4F55DAB5AAA5BA95C8562
:1011ED005D82758300120568FF60071212DC055DD4
:0211FD0080E789
:0111FF0022CD
:04126200AB05A90728
:101266007F017E00E4FAEAC39B500AE9FD7C001286
:0512760005A70A80F14C
:01127B002250
:041158008A0A8B0B69
:10115C00E4F50E12127C850D0ED3E50E940074800E
:10116C0094804028E50E14FD7F0A121262AC0AAD81
:10117C000BCFCDCFCECCCE1205B97C007D0A12059B
:0C118C00B9ED2430FF1212DC150E80CDEE
:011198002234
:050003007F010212CC98
:0A13170000007F367EC6DEFEDFFC1C
:0113210022A9
:09132C00007F0B7EBEDEFEDFFC3B
:011335002295
:0C130A007F167E037DE3DDFEDEFCDFFAD3
:0113160022B4
:10122700E4FF2092010F2093027F022094027F03A4
:0F1237002095027F042096027F0520B3027F06D8
:011246002285
:0F12FB00759D01E4F5BD75BC8012132C02132CF8
:1012A800EF4488F5BC00000000E5BC30E4FB53BC0B
:0412B800EFAFBD22B5
:1010AE00EF14601D14602914603514603E24047022
:1010BE0048300109C2B4C2B5C2B6C2B722D2B4809A
:1010CE002F300109C2B7D2B4D2B5D2B622D2B722CE
:1010DE00300109C2B6D2B4D2B5D2B722D2B62230BE
:1010EE000106C2B5D2B4800AD2B522300109C2B40B
:0A10FE00D2B5D2B6D2B722D2B42286
:10000E00EC4D6011E8497017ED33EC3304600DE4EC
:10001E00FCFFFEFD22E933E8330470F80202A01261
:10002E00026B58046009E4CC248150062850090262
:10003E0002AA2840030202A7C0E0EB4A7044B9802E
:10004E0006D0E0FB020296EF4E701CBD8008EBFF5F
:10005E00EAFEE9FD80EBE98DF0A4FEE5F00200F783
:10006E00E9CDF9EAFEEBFFEF89F0A4FCE5F0CE89CD
:10007E00F0A42EFFE435F0CD89F0A42DFEE435F08A
:10008E008067EF4E7005BD80D780C3EF8BF0A4ACB8
:10009E00F0EE8BF0A42CFCE435F0F8EF8AF0A42CF3
:1000AE00E5F038FCE433CB8DF0A42CFCE5F03BF806
:1000BE00EE8AF0A42CFCE5F038F8E433CF89F0A4F6
:1000CE002CFCE5F038CF3400CE89F0A42FFFE5F0FC
:1000DE003EFEE433C98DF0A42EFEE5F039CD8AF054
:1000EE00A42FFFE5F03EFEE43DFD33D0E0FB5007CC
:1000FE000BBB000F0202AAEC2CFCEF33FFEE33FE1B
:06010E00ED33FD02028248
:100114000202AAEC5D046005E8590470030202A01F
:1001240012026B580460F6EC4860F2EC7004FDFEB9
:10013400FF22C860DB2481C85009C39860025006BE
:100144000202A79850CAF582E9294B4A7005AB828E
:1001540002029675F0007C1A7880C3EF9BEE9AED4C
:1001640099400DC3EF9BFFEE9AFEED99FDE842F036
:10017400DC23ACF0D0E0FFD0E0FED0E0FDAB822089
:10018400E7101BEB60BAEC2CFCEF33FFEE33FEED13
:1001940033FD020282E803F830E705C0F075F00091
:1001A400EF2FFFEE33FEED33FD40B830E7C280AAF7
:1001B40074F8CC6480CCC86480C8F58204604FC3F2
:1001C400EB9FF5F0EA9E42F0E99D42F0E89C45F091
:1001D400603C501DE5825FFFE582D313CB5BCBF41B
:1001E4002B5582FB50280ABA002409B90020088044
:1001F4001DE5825BFBE582D313CF5FCFF4C3132FDE
:100204005582FF50090EBE00050DBD00010CC3EB65
:100214009FF5F0EA9E42F0E99D42F0E89C45F060CB
:0902240007CC4820E701B3EC22ED
:10022D0075F020800E75F010800575F0087D007E4C
:10023D00007F003392D530D50312060EEC334010FB
:10024D00EF33FFEE33FEED33FDEC33FCD5F0ED2255
:0E025D00E5F0247EA2D513CC92E7CDCEFF2291
:10065E00E571245DF8E6057122785A300802785D5E
:10066E00E475F00112062802054F2001EB7F2ED211
:10067E00018018EF540F2490D43440D4FF30050B72
:10068E00EF24BFB41A0050032461FFE57260021517
:10069E00720575E5757002057430080D785AE475AB
:1006AE00F001120628EF0205950212007403D2081B
:1006BE008003E4C208F5718B5A8A5B895CE4F5729B
:1006CE00F574F575E57260077F2012069980F57551
:1006DE0073FFC202C201C203C204C206C207C2092C
:1006EE00120667FF700D3008057F001206AAAF755F
:1006FE00AE7422B4255FC2D5C205120667FF24D0A0
:10070E00B40A00501A75F00A787230D50508B6FF93
:10071E000106C6A426F620D5047002D20480D92480
:10072E00CFB41A00EF5004C2E5D205020997D202E7
:10073E0080C6D20180C0D20380BCD2D580BAD20688
:10074E0080B47F201206992003077401B572004011
:10075E00F112065EFF1206990206D2D209D2078066
:10076E009512065EFB12065EFA12065EF94A4B7091
:10077E0006798E7A0A7BFF20032EE572602A7E00B0
:10078E008E8275830012056860060EEE657370F03A
:10079E00C2D5EBC0E0EAC0E0E9C0E0EE1209F7D046
:1007AE00E0F9D0E0FAD0E0FB12054FFF60AAEBC0F3
:1007BE00E0EAC0E0E9C0E0120699D0E02401F9D0E9
:1007CE00E03400FAD0E0FBE5730460DCD573D98029
:1007DE0087D20380A21209DA60F7E5737001041262
:1007EE0002B5A973600DE573600914F573120A81E1
:1007FE00EF60F3EA30E702F404C3995077EAF42588
:10080E00730430E701E404F573800D1209DA60C158
:10081E00EA057325731202B5EA7870F630E701E443
:10082E00257304D57304200601141209F7E4C0E001
:10083E00120A817870E6601320E70714F61206811B
:10084E00802204F6D0E014C0E07F00120681E5732A
:10085E0060071206781573800B300603120678D0E7
:10086E00E00206D2D0E00480C51209DA60A0E5737A
:10087E00041202B57870EAF6E573200602600104F0
:05088E0024041209F72B
:1008930074FF04C0E0120A81120681E57320060288
:1008A3006003120678D0E0B573E87F4512068B78B3
:1008B30070E67F2B30E7047F2DF404C0E012069925
:1008C300D0E075F00A84C0F0120682D0E0120682EE
:1008D3000206D2791080027908C207C2098008D2C1
:1008E300D5790A8004790AC2D5E573047002F573D9
:1008F300E4FAFDFEFF12065EFC7B082002131206DB
:100903005EFD7B1030010A12065EFE12065EFF7B5F
:1009130020EC3382D592D55013C3E43001069FFFF8
:10092300E49EFEE42002039DFDE49CFCE4CBF8C2BC
:1009330002EC700CCFCECDCCE824F8F870F380171E
:10094300C3EF33FFEE33FEED33FDEC33FCEB33FB50
:10095300994002FB0FD8E9EB300205F8D0E0C44818
:10096300B202C0E00AEC4D4E4F78207B0070C2EA21
:10097300B5730040BCC0E01209F9D0F0D0E020020A
:1009830004C4C0E0C4B202C0F0120682D0F0D5F0B5
:10099300EB0206D2120638076F5308D65807404CAD
:1009A300073C4208DA4F08E24408E2490755430886
:1009B300E85508194608774507E3470AAE50074448
:1009C3002D07482E076B2B074C230769200A972A0C
:1009D30007044800000763E573B4FF037573061249
:1009E300065EFC12065EFD12065EFE12065EFF78D0
:1009F300690202E4790AA2D5200414300609B91069
:100A0300020404B9080104A2D520070250010420FE
:100A130003689203B572005034C0E07F203004199C
:100A23007F30A20372077206500F120A50C203C22C
:100A330007C206C2097F30800F300603E9C0E01207
:100A43000699300603D0E0F9D0E0B572CC30061732
:100A53007F30B9100C1206997F583005077F7880D4
:100A630003B908031206993003057F2D0206997F07
:100A7300202009F87F2B2007F322920380CF7F00E9
:100A8300B4070050052469F8E6FF22286E756C6CE4
:100A93002900D20212065E3002F8C202787230D503
:100AA3000108F60207042D5043495812065E240339
:100AB300B405004001E4900AA99312068A743A121D
:0A0AC300068AD2047572040208D6F8
:10026B00E9D2E7C933E833F892D5EDD2E7CD33ECD9
:07027B0033FC5002B2D52252
:10028200EC30E7100FBF000C0EBE00080DBD0004DD
:100292000BEB6014A2D5EB13FCED92E7FD2274FF89
:1002A200FCFDFEFF22E480F8A2D574FF13FC7D80E2
:0302B200E480EFF6
:1002B500F920E72824F950037907E4F42402FB1810
:1002C500DBFDE624FB5014E9600DE4F618E604F6C0
:0F02D500B40A08E4F6D9F57401F60A22C2D5225C
:1002E400ED33EC3392D5FA602AB4FF33EDC2E77BE9
:1002F400FF60067A037909E4227A03791220D5048F
:100304007A03790D224E614E002B494E46002D4949
:100314004E4600E47A08F608DAFC7B00740722E80B
:10032400C0E0ECC0E0EDC0E0EEC0E0EFC0E0EA7594
:10033400F010A4CAABF075F04DA42BFBE435F0FC2F
:10034400EA2410FAEB34C5FBEC34D9FCEDC2E7FF28
:1003540075F056A4F42411C5F0F434C58FF0A42A22
:10036400E5F03BE43CF620E71412050FD0E0FFD0A3
:10037400E0FED0E0FDD0E0FC1201178014F404127A
:10038400050FD0E0FFD0E0FED0E0FDD0E0FC12008D
:100394000ED0E0F8E6FAEDD2E7CD33EC332482FB5D
:1003A400E4C3CF33CFCE33CECD33CD33DBF37B07B2
:1003B40075F00A846004F6081B0AE5F0F6088FF06D
:1003C400740AA4FFACF08EF0740AA42CFEACF050B6
:1003D400010C8DF0740AA42CFDE435F0F608DBDE84
:0303E40074072279
:1003E7000202A0E86480F8E933E83360110460F0A2
:1003F700ED33EC337009E8FCE9FDEAFEEBFF22047C
:1004070060DED3EB9FEA9EE99DE8C2E78CF0C2F776
:1004170095F0400CE8CCF8E9CDF9EACEFAEBCFFB42
:1004270012026B85D0F05804700320D5B3E804702E
:10043700075002B2D50202AA92D5EC0460F7E4CCC9
:10044700C0E0C398F8603B94186008400DD0E0FB0B
:10045700020282E4FBFAC9FC8028E830E406E4C91A
:10046700FBE4CAFCE830E305E4C9CACBFCE854075F
:100477006010F8C3E913F9EA13FAEB13FBEC13FC6A
:10048700D8F130F52FC3E49CFCEF9BFFEE9AFEED0D
:1004970099FDD0E0FBEF4E4D4C701222DB030202B8
:1004A700A7EC2CFCEF33FFEE33FEED33FDED30E729
:1004B700EB020282EF2BFFEE3AFEED39FDD0E0FBB7
:1004C70050130BBB00030202AAED13FDEE13FEEF60
:0804D70013FFEC13FC0202828A
:1004DF003F8000004120000042C80000447A000025
:1004EF00461C400047C35000497424004B189680A7
:1004FF004CBEBC205A0E1BCA6753C21C749DC5AE9E
:10050F00FB60065407601C232312053DEB54386033
:10051F000912052912053812000EECF8EDF9EEFA62
:10052F00EFCB22EB12053880F1543803241C9004D2
:10053F00DFFE93FC0EEE93FD0EEE930ECE93FF2295
:03000000020FB339
:0C0FB300787FE4F6D8FD758175020FFA16
:10054F00BB010689828A83E0225002E722BBFE02AA
:09055F00E32289828A83E49322DD
:10056800BB010CE58229F582E5833AF583E0225048
:1005780006E92582F8E622BBFE06E92582F8E22292
:0D058800E58229F582E5833AF583E49322AC
:10059500BB010689828A83F0225002F722BBFE0145
:0205A500F3223F
:1005A700EF8DF0A4A8F0CF8CF0A428CE8DF0A42E68
:0205B700FE2222
:1005B900BC000BBE0029EF8DF084FFADF022E4CC26
:1005C900F875F008EF2FFFEE33FEEC33FCEE9DECEF
:1005D900984005FCEE9DFE0FD5F0E9E4CEFD22ED35
:1005E900F8F5F0EE8420D21CFEADF075F008EF2F7F
:1005F900FFED33FD4007985006D5F0F222C398FD70
:050609000FD5F0EA220C
:0E060E00C3E49FFFE49EFEE49DFDE49CFC22FD
:0C061C00ECF0A3EDF0A3EEF0A3EFF02251
:10062800FAE6FB0808E6F925F0F618E6CA3AF622D3
:10063800D083D082F8E4937012740193700DA3A351
:1006480093F8740193F5828883E473740293686065
:06065800EFA3A3A380DF65
:10120000EFB40A07740D12120B740A309811A899E2
:10121000B8130CC2983098FDA899C298B811F6304E
:0712200099FDC299F5992226
:10103F008B5A8A5B895CAB5DAA5EA95F12054FFE76
:10104F00AB5AAA5BA95C12054FFF6E702BEF600DB8
:10105F00E56115617002156014456070037F002211
:10106F007401255CF55CE4355BF55B7401255FF578
:10107F005FE4355EF55E80BEAB5AAA5BA95C1205D4
:10108F004FFDD3EE6480F8ED64809840037F01221A
:0F109F00AB5DAA5EA95F12054FFFC3ED9FFF2255
:100FBF00021247E493A3F8E493A34003F68001F2EF
:100FCF0008DFF48029E493A3F85407240CC8C33333
:100FDF00C4540F4420C8834004F456800146F6DF02
:100FEF00E4800B0102040810204080901199E47EE8
:100FFF00019360BCA3FF543F30E509541FFEE493F7
:10100F00A360010ECF54C025E060A840B8E493A3BD
:10101F00FAE493A3F8E493A3C8C582C8CAC583CAE8
:10102F00F0A3C8C582C8CAC583CADFE9DEE780BEA0
:0111D6000018
:00000001FF
