:101556002530362E3266005072657373204F4B204D
:10156600537461727421007546006E460070460021
:10157600496E7075742050617373776F726400459D
:1015860052524F5200524947485400576169742ECF
:101596002E2E005072657373204F4B20456E6400EB
:10135E00022300000254000002480000023900007F
:10136E00023B00000252000102370000064C3030F2
:10137E0030303030012D000131050656303030301E
:10138E00303006263130303030300130000141002F
:10139E0058001800000000000000000000000000CF
:1013AE0000000000000000000000005800000000D7
:1013BE00000000000000000000000000000000001F
:1013CE00000000000000440030000000005800340F
:1013DE0042C80000412000003F80000000000000D5
:0B13EE003DCCCCCD3C23D70A012200EF
:101692001216DE121737121746C200E4FF1214F5B3
:0B16A20012068F12104B1215E780F5A6
:10104B00E55545546003021289F554755501E52D9C
:10105B006003021157755FFF75601575615685400A
:10106B0065853F64853E63853D62FB7A00794C1252
:10107B000C387F0C1217177BFF7A15795D7D017F7A
:10108B0001121622AB4C7D017F0212176DAB4D7D09
:10109B00027F0212176DAB4E7D037F0212176DABF1
:1010AB004F7D047F0212176DAB507D057F02121727
:1010BB006DAB517D067F0212176D755FFF75601565
:1010CB00756156E52225E025E02400F582E4340025
:1010DB00F583E0FCA3E0FDA3E0FEA3E0F5658E64E1
:1010EB008D638C627B007A00794C120C38AB4C7D93
:1010FB000A7F0212176DAB4D7D0B7F0212176DAB82
:10110B004E7D0C7F0212176DAB4F7D0D7F021217B8
:10111B006DAB507D0E7F0212176DAB517D0F7F02B1
:10112B0012176DE545146012146017240260030258
:10113B0012587BFF7A15796D800E7BFF7A157970CB
:10114B0080067BFF7A1579737D078067E52D640137
:10115B00701C7F0F1217177BFF7A1579767D027F34
:10116B00011216227B007A0079567D068045E52D0B
:10117B006402700D7F0C1217177BFF7A157985802F
:10118B0011E52D640370117F0C1217177BFF7A1575
:10119B00798B7D067F01801DE52D6404701D7BFF1F
:1011AB007A1579917D017F011216227BFF7A1579D1
:1011BB00997D017F02121622021258E52D640570EB
:1011CB00707F0F121717755FFF756015756156905D
:1011DB000030E0FCA3E0FDA3E0FEA3E0F5658E6428
:1011EB008D638C627B007A00794C120C38AB4C7D92
:1011FB00017F0212176DAB4D7D027F0212176DAB93
:10120B004E7D037F0212176DAB4F7D047F021217C9
:10121B006DAB507D057F0212176DAB517D067F02C2
:10122B0012176DE5222430FB7D017F0112176D80B3
:10123B001CE52D640670167B417D017F0112176D35
:10124B007FD07E07121707120003E4F52DAF2DEFA9
:10125B0064026005EF6403701D7FD07E07121707D1
:10126B00120003E52D64027002F52DE52D64037069
:0F127B0005752D05F531E53124C0FF1217172237
:10068F00E52445236003020BDBF5237524011216C5
:10069F00728F44E544654BFF5544F54AE544F45FDA
:1006AF00F52585444BE54A60067546077547D0E545
:1006BF004B6025E5474546701F120003752D01E479
:1006CF00F530D3E530940574809480500B74562523
:1006DF0030F87630053080EAE54745467003020B67
:1006EF00DBE52524FE60221470030207A8147003B3
:1006FF0002082114700302084E14700302088224AA
:10070F00056003020BDB020BD6AF2D7E00EF6401F9
:10071F00701574512531F80674512531F8E6D394CC
:10072F003940737639806FEF64054E7069900030F1
:10073F00E0FCA3E0FDA3E0FEA3E0FFE53125E0250B
:10074F00E02434F582E43400F583E0F8A3E0F9A364
:10075F00E0FAA3E0FB12001590003012061CE4FF34
:10076F00FE7D7A7C44900030E0F8A3E0F9A3E0FA34
:10077F00A3E0FB1202AC401E900030E0FCA3E0FDB2
:10078F00A3E0FEA3E0FFE4FBFA797A7844120011AC
:10079F0090003012061C020BD6AF2D7E00EF6401C5
:1007AF00701474512531F81674512531F8E6642F01
:1007BF00705D76308059EF64054E7053900030E0D5
:1007CF00FCA3E0FDA3E0FEA3E0FFE53125E025E07B
:1007DF002434F582E43400F583E0F8A3E0F9A3E0D4
:1007EF00FAA3E0FB12001190003012061CE4FFFE8A
:1007FF00FDFC900030E0F8A3E0F9A3E0FAA3E0FBE2
:10080F001202AC500A9000301206280000000002BD
:10081F000BD6AF2D7E00EF640170121531D3E53189
:10082F009405748094805014753105800FEF640522
:10083F004E70091531E531F47002F531020BD6AF68
:10084F002D7E00EF640170120531C3E531940A74F7
:10085F00809480401B75310A8016EF64054E70102E
:10086F000531D3E5319405748094804003753105CB
:10087F00020BD6E52D7009120003752D04020BD65D
:10088F00E52D64046003020A9B120003E4F52DF5C5
:10089F0040F53FF53EF53DFFFE7DA07C40900050BA
:1008AF00E0F8A3E0F9A3E0FAA3E0FB1202AC600FBB
:1008BF00400DE4F540F53F753E48753D42F545E482
:1008CF00FFFE7DA07C40900050E0F8A3E0F9A3E08C
:1008DF00FAA3E0FB1202AC60025040E4FFFEFD7C85
:1008EF003F900050E0F8A3E0F9A3E0FAA3E0FB1279
:1008FF0002AC60274025E4FFFE7D207C4190005034
:10090F00E0F8A3E0F9A3E0FAA3E0FB1201068F40A1
:10091F008E3F8D3E8C3D9000008056E4FFFEFD7CA7
:10092F003F900050E0F8A3E0F9A3E0FAA3E0FB1238
:10093F0002AC60025057E4FFFEFD7C3F900054E094
:10094F00F8A3E0F9A3E0FAA3E0FB1202AC603E408B
:10095F003C900054E0FCA3E0FDA3E0FEA3E0F540D3
:10096F008E3F8D3E8C3DAF40AE3FAD3EAC3D9000D7
:10097F0004E0F8A3E0F9A3E0FAA3E0FB1200158F5F
:10098F00408E3F8D3E8C3DE4F545020BD6E4FFFED5
:10099F00FD7C3F900054E0F8A3E0F9A3E0FAA3E058
:1009AF00FB1202AC60025040E4FFFEFD7C3F900062
:1009BF0058E0F8A3E0F9A3E0FAA3E0FB1202AC6061
:1009CF00274025E4FFFE7DC87C42900058E0F8A345
:1009DF00E0F9A3E0FAA3E0FB1201068F408E3F8DF2
:1009EF003E8C3D9000088059E4FFFEFD7C3F900057
:1009FF0058E0F8A3E0F9A3E0FAA3E0FB1202AC6021
:100A0F00025050E4FFFEFD7C3F90005CE0F8A3E055
:100A1F00F9A3E0FAA3E0FB1202AC60374035E4FF24
:100A2F00FE7D207C4190005CE0F8A3E0F9A3E0FAA2
:100A3F00A3E0FB1201068F408E3F8D3E8C3D900050
:100A4F000CE0F8A3E0F9A3E0FAA3E0FB1200158F86
:100A5F0040802DE4FFFEFD7C3F90005CE0F8A3E0BA
:100A6F00F9A3E0FAA3E0FB1202AC60054003020B0E
:100A7F00D690004CE0FCA3E0FDA3E0FEA3E0F54020
:100A8F008E3F8D3E8C3D754501020BD6E52D6401E1
:100A9F00702E120003755F00756000756126756218
:100AAF00007563067B007A007956121486EF339532
:100ABF00E04F7006752D03020BD6752D02020BD673
:100ACF00E52D64056003020BD6900030E0FCA3E037
:100ADF00FDA3E0FEA3E0FFE52225E025E02418F5C5
:100AEF0082E43400F58312061CE52214600F1460B3
:100AFF002814600724036003020BB1804AE5222506
:100B0F00E025E02450F582E43400F583E0F8A3E01B
:100B1F00F9A3E0FAA3E0FB805AE52225E025E024C3
:100B2F0050F582E43400F583E0FCA3E0FDA3E0FE82
:100B3F00A3E0FFE4FBFA79C87842120106A804A9E2
:100B4F0005AA06AB07802CE52225E025E02450F509
:100B5F0082E43400F583E0FCA3E0FDA3E0FEA3E014
:100B6F00FFE4FBFA79207841120106A804A905AA2F
:100B7F0006AB07E52225E025E02418F582E43400D2
:100B8F00F583E0FCA3E0FDA3E0FEA3E0FF1200115C
:100B9F00E52225E025E02400F582E43400F58312F8
:100BAF00061C900030120628000000000522D3E535
:100BBF0022940674809480400EE4F522F540F53FB0
:0D0BCF00F53EF53D752D06E4F546F547228F
:1015E700E54945487034F548754901FF1216F38FF0
:1015F70036AC36E412032FE4FBFA794C7842120238
:101607000FE52C25E025E0244CF582E43400F58332
:0B16170012061CD200AF2C1214F522AA
:03000B0002128A54
:10128A00C0E0C0D075D000C006C0070524E52470B0
:10129A00020523640A45237004F523F5240555E560
:1012AA00557002055464C845547004F554F5550543
:1012BA0049E54970020548643245487004F548F525
:1012CA0049D3E52F9400E52E94004008E52F152F09
:1012DA007002152ED3E5479400E54694004008E5D0
:1012EA0047154770021546AF2D7E00EF640470293A
:1012FA000538E53870020537D394E8E5379403409A
:10130A004A052CD3E52C9404748094804003752CF0
:10131A00007537007538008032EF64054E702CE591
:10132A002214601514601714601914601B146018D5
:10133A0024057017752C018012752C02800D752CEE
:10134A00038008752C048003752C00D007D006D0C2
:04135A00D0D0E032DD
:101707008E2E8F2FD3E52F9400E52E940050F522CF
:1016DE00438E805389F0758ACD758CD4C28DD28C91
:0516EE00D2A9D2AF22D9
:10171700C2A7C2A68F80D2A5121777C2A5021777D4
:10172700D2A7C2A68F80D2A5121777C2A5021777B4
:0F1737007F381217177F0C1217177F060217172C
:1016C7008D60EF64017005E560148004E560243FD8
:0716D7004480FF12171722E7
:0A176D008B5C1216C7AF5C02172751
:061622008B5C8A5D895E0D
:10162800E4F55F1216C7E4F55FAB5CAA5DA95E85B9
:101638005F82758300120568FF6007121727055F30
:0216480080E739
:01164A00227D
:0416AD00AB05A907D9
:1016B1007F017E00E4FAEAC39B500AE9FD7C001237
:0516C10005A70A80F1FD
:0116C6002201
:0415A6008A0A8B0B17
:1015AA00E4F50E1216C7850D0ED3E50E940074806D
:1015BA0094804028E50E14FD7F0A1216ADAC0AADE0
:1015CA000BCFCDCFCECCCE1205B97C007D0A120549
:0C15DA00B9ED2430FF121727150E80CD4C
:0115E60022E2
:050003007F0102171748
:0A17620000007F367EC6DEFEDFFCCD
:01176C00225A
:09177700007F0B7EBEDEFEDFFCEC
:011780002246
:0C1755007F167E037DE3DDFEDEFCDFFA84
:011761002265
:10167200E4FF2092010F2093027F022094027F0355
:0F1682002095027F042096027F0520B3027F0689
:011691002236
:0F174600759D01E4F5BD75BC801217770217770A
:1016F300EF4488F5BC00000000E5BC30E4FB53BCBC
:04170300EFAFBD2265
:1014F500EF14601214601E14602A14603314603CEB
:101505002405704C8042300009C2B7D2B4D2B5D29E
:10151500B622D2B722300009C2B6D2B4D2B5D2B7FC
:1015250022D2B622300006C2B5D2B4801FD2B5226F
:10153500300006C2B4D2B58013D2B422300009C23D
:10154500B4C2B5C2B6C2B722D2B4D2B5D2B6D2B73A
:011555002273
:10000E00020398E86480F8E933E83360110460F085
:10001E00ED33EC337009E8FCE9FDEAFEEBFF220458
:10002E0060DED3EB9FEA9EE99DE8C2E78CF0C2F753
:10003E0095F0400CE8CCF8E9CDF9EACEFAEBCFFB1F
:10004E0012036385D0F05804700320D5B3E8047012
:10005E00075002B2D50203A292D5EC0460F7E4CCAD
:10006E00C0E0C398F8603B94186008400DD0E0FBE8
:10007E0002037AE4FBFAC9FC8028E830E406E4C9FE
:10008E00FBE4CAFCE830E305E4C9CACBFCE854073C
:10009E006010F8C3E913F9EA13FAEB13FBEC13FC47
:1000AE00D8F130F52FC3E49CFCEF9BFFEE9AFEEDEA
:1000BE0099FDD0E0FBEF4E4D4C701222DB03020394
:1000CE009FEC2CFCEF33FFEE33FEED33FDED30E70E
:1000DE00EB02037AEF2BFFEE3AFEED39FDD0E0FB9B
:1000EE0050130BBB00030203A2ED13FDEE13FEEF44
:0800FE0013FFEC13FC02037A6E
:10010600EC4D6011E8497017ED33EC3304600DE4F3
:10011600FCFFFEFD22E933E8330470F8020398126F
:10012600036358046009E4CC248150062850090270
:1001360003A228400302039FC0E0EB4A7044B98043
:1001460006D0E0FB02038EEF4E701CBD8008EBFF6D
:10015600EAFEE9FD80EBE98DF0A4FEE5F00201EF91
:10016600E9CDF9EAFEEBFFEF89F0A4FCE5F0CE89D4
:10017600F0A42EFFE435F0CD89F0A42DFEE435F091
:100186008067EF4E7005BD80D780C3EF8BF0A4ACBF
:10019600F0EE8BF0A42CFCE435F0F8EF8AF0A42CFA
:1001A600E5F038FCE433CB8DF0A42CFCE5F03BF80D
:1001B600EE8AF0A42CFCE5F038F8E433CF89F0A4FD
:1001C6002CFCE5F038CF3400CE89F0A42FFFE5F003
:1001D6003EFEE433C98DF0A42EFEE5F039CD8AF05B
:1001E600A42FFFE5F03EFEE43DFD33D0E0FB5007D3
:1001F6000BBB000F0203A2EC2CFCEF33FFEE33FE29
:06020600ED33FD02037A56
:10020C000203A2EC5D046005E85904700302039834
:10021C00120363580460F6EC4860F2EC7004FDFEC7
:10022C00FF22C860DB2481C85009C39860025006C5
:10023C0002039F9850CAF582E9294B4A7005AB829C
:10024C0002038E75F0007C1A7880C3EF9BEE9AED5A
:10025C0099400DC3EF9BFFEE9AFEED99FDE842F03D
:10026C00DC23ACF0D0E0FFD0E0FED0E0FDAB822090
:10027C00E7101BEB60BAEC2CFCEF33FFEE33FEED1A
:10028C0033FD02037AE803F830E705C0F075F0009F
:10029C00EF2FFFEE33FEED33FD40B830E7C280AAFE
:1002AC0074F8CC6480CCC86480C8F58204604FC3F9
:1002BC00EB9FF5F0EA9E42F0E99D42F0E89C45F098
:1002CC00603C501DE5825FFFE582D313CB5BCBF422
:1002DC002B5582FB50280ABA002409B9002008804B
:1002EC001DE5825BFBE582D313CF5FCFF4C3132FE5
:1002FC005582FF50090EBE00050DBD00010CC3EB6D
:10030C009FF5F0EA9E42F0E99D42F0E89C45F060D2
:09031C0007CC4820E701B3EC22F4
:1003250075F020800E75F010800575F0087D007E53
:10033500007F003392D530D50312060EEC33401002
:10034500EF33FFEE33FEED33FDEC33FCD5F0ED225C
:0E035500E5F0247EA2D513CC92E7CDCEFF2298
:100BDC00E573245FF8E6057322785C300702785FD2
:100BEC00E475F00112065902054F2000EB7F2ED25E
:100BFC00008018EF540F2490D43440D4FF30040BF1
:100C0C00EF24BFB41A0050032461FFE57460021591
:100C1C00740577E5777002057630070D785CE4751E
:100C2C00F001120659EF02059502164B7403D20718
:100C3C008003E4C207F5738B5C8A5D895EE4F5740E
:100C4C00F576F577E57460077F20120C1780F57543
:100C5C0075FFC201C200C202C203C205C206C208AD
:100C6C00120BE5FF700D3007057F00120C28AF77D3
:100C7C00AE7622B4255FC2D5C204120BE5FF24D098
:100C8C00B40A00501A75F00A787430D50508B6FF0E
:100C9C000106C6A426F620D5047002D20380D924FE
:100CAC00CFB41A00EF5004C2E5D204020F15D201E2
:100CBC0080C6D20080C0D20280BCD2D580BAD20508
:100CCC0080B47F20120C172002077401B574004009
:100CDC00F1120BDCFF120C17020C50D208D206805A
:100CEC0095120BDCFB120BDCFA120BDCF94A4B7085
:100CFC0006790C7A107BFF20022EE574602A7E00A8
:100D0C008E8275830012056860060EEE657570F0B4
:100D1C00C2D5EBC0E0EAC0E0E9C0E0EE120F75D03E
:100D2C00E0F9D0E0FAD0E0FB12054FFF60AAEBC06F
:100D3C00E0EAC0E0E9C0E0120C17D0E02401F9D0E1
:100D4C00E03400FAD0E0FBE5750460DCD575D980A1
:100D5C0087D20280A2120F5860F7E5757001041259
:100D6C0003ADA975600DE575600914F575120FFFDB
:100D7C00EF60F3EA30E702F404C3995077EAF42504
:100D8C00750430E701E404F575800D120F5860C14D
:100D9C00EA057525751203ADEA7872F630E701E4C1
:100DAC00257504D5750420050114120F75E4C0E0F7
:100DBC00120FFF7872E6601320E70714F6120BFF90
:100DCC00802204F6D0E014C0E07F00120BFFE57522
:100DDC006007120BF61575800B300503120BF6D05D
:100DEC00E0020C50D0E00480C5120F5860A0E575ED
:100DFC00041203AD7872EAF6E57520050260010471
:050E0C002404120F7523
:100E110074FF04C0E0120FFF120BFFE575200502FD
:100E21006003120BF6D0E0B575E87F45120C097826
:100E310072E67F2B30E7047F2DF404C0E0120C171B
:100E4100D0E075F00A84C0F0120C00D0E0120C0062
:100E5100020C50791080027908C206C2088008D2BB
:100E6100D5790A8004790AC2D5E575047002F57551
:100E7100E4FAFDFEFF120BDCFC7B08200113120BD0
:100E8100DCFD7B1030000A120BDCFE120BDCFF7B59
:100E910020EC3382D592D55013C3E43000069FFF76
:100EA100E49EFEE42001039DFDE49CFCE4CBF8C23A
:100EB10001EC700CCFCECDCCE824F8F870F380179C
:100EC100C3EF33FFEE33FEED33FDEC33FCEB33FBCD
:100ED100994002FB0FD8E9EB300105F8D0E0C44896
:100EE100B201C0E00AEC4D4E4F78207B0070C2EA9F
:100EF100B5750040BCC0E0120F77D0F0D0E0200102
:100F010004C4C0E0C4B201C0F0120C00D0F0D5F0AE
:100F1100EB020C501206690CED530E54580CBE4CEA
:100F21000CBA420E584F0E60440E60490CD3430E6A
:100F310066550D97460DF5450D6147102C500CC2B5
:100F41002D0CC62E0CE92B0CCA230CE72010152AF8
:100F51000C824800000CE1E575B4FF0375750612BB
:100F61000BDCFC120BDCFD120BDCFE120BDCFF7840
:100F71006B0203DC790AA2D5200314300509B910EC
:100F8100020404B9080104A2D5200602500104207C
:100F910002689202B574005034C0E07F203003191A
:100FA1007F30A20272067205500F120FCEC202C22A
:100FB10006C205C2087F30800F300503E9C0E01288
:100FC1000C17300503D0E0F9D0E0B574CC3005172B
:100FD1007F30B9100C120C177F583004077F7880CE
:100FE10003B90803120C173002057F2D020C177F7D
:100FF100202008F87F2B2006F322920280CF7F0069
:10100100B407005005246BF8E6FF22286E756C6C5E
:101011002900D201120BDC3001F8C201787430D5FD
:101021000108F6020C822D50434958120BDC2403AF
:10103100B405004001E490102793120C08743A1291
:0A1041000C08D203757404020E546B
:10036300E9D2E7C933E833F892D5EDD2E7CD33ECE0
:0703730033FC5002B2D52259
:10037A00EC30E7100FBF000C0EBE00080DBD0004E4
:10038A000BEB6014A2D5EB13FCED92E7FD2274FF90
:10039A00FCFDFEFF22E480F8A2D574FF13FC7D80E9
:0303AA00E480EFFD
:1003AD00F920E72824F950037907E4F42402FB1817
:1003BD00DBFDE624FB5014E9600DE4F618E604F6C7
:0F03CD00B40A08E4F6D9F57401F60A22C2D52263
:1003DC00ED33EC3392D5FA602AB4FF33EDC2E77BF0
:1003EC00FF60067A047901E4227A04790A20D504A4
:1003FC007A047905224E614E002B494E46002D4958
:10040C004E4600E47A08F608DAFC7B00740722E812
:10041C00C0E0ECC0E0EDC0E0EEC0E0EFC0E0EA759B
:10042C00F010A4CAABF075F04DA42BFBE435F0FC36
:10043C00EA2410FAEB34C5FBEC34D9FCEDC2E7FF2F
:10044C0075F056A4F42411C5F0F434C58FF0A42A29
:10045C00E5F03BE43CF620E71412050FD0E0FFD0AA
:10046C00E0FED0E0FDD0E0FC12020F8014F4041288
:10047C00050FD0E0FFD0E0FED0E0FDD0E0FC120193
:10048C0006D0E0F8E6FAEDD2E7CD33EC332482FB6C
:10049C00E4C3CF33CFCE33CECD33CD33DBF37B07B9
:1004AC0075F00A846004F6081B0AE5F0F6088FF074
:1004BC00740AA4FFACF08EF0740AA42CFEACF050BD
:1004CC00010C8DF0740AA42CFDE435F0F608DBDE8B
:0304DC0074072280
:1004DF003F8000004120000042C80000447A000025
:1004EF00461C400047C35000497424004B189680A7
:1004FF004CBEBC205A0E1BCA6753C21C749DC5AE9E
:10050F00FB60065407601C232312053DEB54386033
:10051F0009120529120538120106ECF8EDF9EEFA69
:10052F00EFCB22EB12053880F1543803241C9004D2
:10053F00DFFE93FC0EEE93FD0EEE930ECE93FF2295
:030000000213FAEE
:0C13FA00787FE4F6D8FD7581770214417D
:10054F00BB010689828A83E0225002E722BBFE02AA
:09055F00E32289828A83E49322DD
:10056800BB010CE58229F582E5833AF583E0225048
:1005780006E92582F8E622BBFE06E92582F8E22292
:0D058800E58229F582E5833AF583E49322AC
:10059500BB010689828A83F0225002F722BBFE0145
:0205A500F3223F
:1005A700EF8DF0A4A8F0CF8CF0A428CE8DF0A42E68
:0205B700FE2222
:1005B900BC000BBE0029EF8DF084FFADF022E4CC26
:1005C900F875F008EF2FFFEE33FEEC33FCEE9DECEF
:1005D900984005FCEE9DFE0FD5F0E9E4CEFD22ED35
:1005E900F8F5F0EE8420D21CFEADF075F008EF2F7F
:1005F900FFED33FD4007985006D5F0F222C398FD70
:050609000FD5F0EA220C
:0E060E00C3E49FFFE49EFEE49DFDE49CFC22FD
:0C061C00ECF0A3EDF0A3EEF0A3EFF02251
:10062800A8828583F0D083D08212063F12063F123B
:10063800063F12063FE473E493A3C583C5F0C58360
:10064800C8C582C8F0A3C583C5F0C583C8C582C81C
:01065800227F
:10065900FAE6FB0808E6F925F0F618E6CA3AF622A2
:10066900D083D082F8E4937012740193700DA3A320
:1006790093F8740193F5828883E473740293686034
:06068900EFA3A3A380DF34
:10164B00EFB40A07740D121656740A309811A89944
:10165B00B8130CC2983098FDA899C298B811F630FF
:07166B0099FDC299F59922D7
:101486008B5C8A5D895EAB5FAA60A96112054FFE1F
:10149600AB5CAA5DA95E12054FFF6E702BEF600D67
:1014A600E56315637002156214456270037F0022BE
:1014B6007401255EF55EE4355DF55D74012561F523
:1014C60061E43560F56080BEAB5CAA5DA95E12057D
:1014D6004FFDD3EE6480F8ED64809840037F0122CF
:0F14E600AB5FAA60A96112054FFFC3ED9FFF2204
:10140600021692E493A3F8E493A34003F68001F254
:1014160008DFF48029E493A3F85407240CC8C333E7
:10142600C4540F4420C8834004F456800146F6DFB6
:10143600E4800B010204081020408090135EE47ED5
:10144600019360BCA3FF543F30E509541FFEE493AB
:10145600A360010ECF54C025E060A840B8E493A372
:10146600FAE493A3F8E493A3C8C582C8CAC583CA9D
:10147600F0A3C8C582C8CAC583CADFE9DEE780BE55
:0113F90000F3
:00000001FF
