:10006700C2A2120003750B027B327D017F011200D1
:030077003780F5DA
:100003007F381200501200B97F381200501200B925
:100013007F381200501200B97F381200507F081247
:1000230000507F011200507F061200501200B97F6A
:040033000C0200506B
:100050008F0A1200C41200C41200C4C2A7C2A6852F
:070060000A80D2A5C2A5220F
:10007A008F0A12008D40FBD2A7C2A6850A80D2A59C
:03008A00C2A522EA
:100037008D088B09E508BF0103148002243F448023
:09004700FF120050AF0902007A1B
:10008D00C2A7D2A6C2A51200C400D2A51200C4E513
:03009D008033228B
:0A00B90000007F367EC6DEFEDFFC8D
:0100C300221A
:0900C400007F0B7EBEDEFEDFFCB6
:0100CD002210
:0C00A0007F167E037DE3DDFEDEFCDFFA50
:0100AC002231
:030000000200AD4E
:0C00AD00787FE4F6D8FD75810B02006737
:00000001FF
