:101459002530362E3266005072657373204F4B204B
:10146900537461727421007546006E46007046001F
:10147900496E7075742050617373776F726400459B
:1014890052524F5200524947485400576169742ECD
:101499002E2E005072657373204F4B20456E6400E9
:1013110002230000025300000247000002390000CE
:10132100023B00000251000102370000064B303041
:1013310030303030012D000131050655303030306C
:101341003030062631303030303001300044001862
:101351000000000044001C000000004400200000C8
:1013610000004400240000000044002800000000A8
:1013710058002C42C80000412000003F80000000BE
:0E1381000000003DCCCCCD3C23D70A01220059
:10155A001215A61215FF12160EC200E4FF1213FF8F
:0B156A00120AFE120F421211EA80F577
:100F4200E55445536003021117F553755401E52D1D
:100F52006003020FE5755EFF755F14756059854089
:100F620064853F63853E62853D61FB7A00794B1261
:100F720006EB7F0C1215DF7BFF7A1479607D017F0F
:100F8200011214EAAB4B7D017F02121635AB4C7D88
:100F9200027F02121635AB4D7D037F02121635AB6E
:100FA2004E7D047F02121635AB4F7D057F0212166D
:100FB20035AB507D067F02121635E54414601214DB
:100FC2006017240260030210E67BFF7A14797080B6
:100FD2000E7BFF7A14797380067BFF7A1479767D13
:100FE200078067E52D6401701C7F0F1215DF7BFF00
:100FF2007A1479797D027F011214EA7B007A0079F2
:10100200557D068045E52D6402700D7F0C1215DFBB
:101012007BFF7A1479888011E52D640370117F0CAF
:101022001215DF7BFF7A14798E7D067F01801DE524
:101032002D6404701D7BFF7A1479947D017F011267
:1010420014EA7BFF7A14799C7D017F021214EA0272
:1010520010E6E52D640570707F0F1215DF755EFFD7
:10106200755F14756059900028E0FCA3E0FDA3E0D1
:10107200FEA3E0F5648E638D628C617B007A007959
:101082004B1206EBAB4B7D017F02121635AB4C7D4A
:10109200027F02121635AB4D7D037F02121635AB6D
:1010A2004E7D047F02121635AB4F7D057F0212166C
:1010B20035AB507D067F02121635E5222430FB7DCA
:1010C200017F01121635801CE52D640670167B41E6
:1010D2007D017F011216357FD07E071215CF1200D7
:1010E20003E4F52DAF2DEF64026005EF6403701D7C
:1010F2007FD07E071215CF120003E52D6402700225
:10110200F52DE52D64037005752D05F531E53124C6
:06111200C0FF1215DF22F0
:100AFE00E52445236003020F41F5237524011215E9
:100B0E003A8F43E543654AFF5543F549E543F45FA4
:100B1E00F52585434AE54960067545077546D0E5D6
:100B2E004A6025E5464545701F120003752D01E408
:100B3E00F530D3E530940574809480500B745525B0
:100B4E0030F87630053080EAE54645457003020FF1
:100B5E0041E52524FE6022147003020C1714700365
:100B6E00020C90147003020CBD147003020CF124DD
:100B7E00056003020F41020F3CAF2D7E00EF6401B2
:100B8E00701574502531F80674502531F8E6D3945B
:100B9E003940737639806FEF64054E706990002886
:100BAE00E0FCA3E0FDA3E0FEA3E0FFE53125E02598
:100BBE00E0242CF582E43400F583E0F8A3E0F9A3F9
:100BCE00E0FAA3E0FB12001590002812061CE4FFC9
:100BDE00FE7D7A7C44900028E0F8A3E0F9A3E0FAC9
:100BEE00A3E0FB1202AC401E900028E0FCA3E0FD47
:100BFE00A3E0FEA3E0FFE4FBFA797A784412001139
:100C0E0090002812061C020F3CAF2D7E00EF6401EF
:100C1E00701474502531F81674502531F8E6642F8F
:100C2E00705D76308059EF64054E7053900028E069
:100C3E00FCA3E0FDA3E0FEA3E0FFE53125E025E007
:100C4E00242CF582E43400F583E0F8A3E0F9A3E068
:100C5E00FAA3E0FB12001190002812061CE4FFFE1E
:100C6E00FDFC900028E0F8A3E0F9A3E0FAA3E0FB76
:100C7E001202AC500A900028120628000000000252
:100C8E000F3CAF2D7E00EF640170121531D3E531AC
:100C9E009405748094805014753105800FEF6405AF
:100CAE004E70091531E531F47002F531020F3CAF8B
:100CBE002D7E00EF640170120531C3E531940A7484
:100CCE00809480401B75310A8016EF64054E7010BB
:100CDE000531D3E531940574809480400375310558
:100CEE00020F3CE52D7009120003752D04020F3C16
:100CFE00E52D64046003020EC7120003E4F52DF522
:100D0E0040F53FF53EF53DFFFE7DA07C409000187E
:100D1E00E0F8A3E0F9A3E0FAA3E0FB1202AC600F47
:100D2E00400DE4F540F53F753E48753D42F544E40F
:100D3E00FFFE7DA07C40900018E0F8A3E0F9A3E050
:100D4E00FAA3E0FB1202AC60025037E4FFFEFD7C1A
:100D5E003F900018E0F8A3E0F9A3E0FAA3E0FB123D
:100D6E0002AC601E401CE4FFFE7D207C419000180A
:100D7E00E0F8A3E0F9A3E0FAA3E0FB1201068F402E
:100D8E008045E4FFFEFD7C3F900018E0F8A3E0F9FB
:100D9E00A3E0FAA3E0FB1202AC60025036E4FFFEC1
:100DAE00FD7C3F90001CE0F8A3E0F9A3E0FAA3E07D
:100DBE00FB1202AC601D401B90001CE0FCA3E0FD8A
:100DCE00A3E0FEA3E0F5408E3F8D3E8C3DE4F5445E
:100DDE00020F3CE4FFFEFD7C3F90001CE0F8A3E018
:100DEE00F9A3E0FAA3E0FB1202AC60025036E4FF76
:100DFE00FEFD7C3F900020E0F8A3E0F9A3E0FAA30B
:100E0E00E0FB1202AC601D401BE4FFFE7DC87C427D
:100E1E00900020E0F8A3E0F9A3E0FAA3E0FB1201B2
:100E2E0006020EB5E4FFFEFD7C3F900020E0F8A325
:100E3E00E0F9A3E0FAA3E0FB1202AC600540030266
:100E4E000F3CE4FFFEFDFC900024E0F8A3E0F9A3C4
:100E5E00E0FAA3E0FB1202AC60025003020F3C7FEB
:100E6E00007E407D1C7C46900024E0F8A3E0F9A3B0
:100E7E00E0FAA3E0FB1201068F408E3F8D3E8C3DC3
:100E8E007F007E407D1C7C46AB40AA3FA93EA83D1C
:100E9E001202AC401FAF40AE3FAD3EAC3DE4FBFA9C
:100EAE00797A784412020F8F408E3F8D3E8C3D75BD
:100EBE004401807A7544028075E52D6401702C1210
:100ECE000003755E00755F007560267561007562C2
:100EDE00067B007A007955121390EF3395E04F7030
:100EEE0005752D038048752D028043E52D64057030
:100EFE003D900028E0FCA3E0FDA3E0FEA3E0FFE5AB
:100F0E002225E025E02400F582E43400F583120664
:100F1E001C900028120628000000000522D3E522AE
:100F2E009406748094804006E4F522752D06E4F54F
:040F3E0045F546220D
:1011EA00E54845476003021284F547754801E52C36
:1011FA006401701BFF1215BB8F36AC36E412032F45
:10120A00E4FBFA794C784212020F9000188061E5EB
:10121A002C6402701BFF1215BB8F36AC36E4120326
:10122A002FE4FBFA794C784212020F90001C80409E
:10123A00E52C6403701BFF1215BB8F36AC36E41223
:10124A00032FE4FBFA794C784212020F90002080B7
:10125A001FE52C6404701CFF1215BB8F36AC36E4F4
:10126A0012032FE4FBFA794C784212020F90002401
:0B127A0012061CD200AF2C1213FF2242
:03000B00021118C7
:10111800C0E0C0D075D000C006C0070524E5247023
:10112800020523640A45237004F523F5240554E5D4
:10113800547002055364C845537004F553F55405BB
:1011480048E54870020547643245477004F547F59D
:1011580048D3E52F9400E52E94004008E52F152F7D
:101168007002152ED3E5469400E54594004008E545
:1011780046154670021545AF2D7E00EF64047029B0
:101188000538E53870020537D394E8E5379403400D
:1011980048052CD3E52C9404748094804003752C66
:1011A800017537007538008030EF64054E702AAF3E
:1011B80022FEEF7005752C01801FEF64014E70054B
:1011C800752C028014EF64024E7005752C0380099B
:1011D800EF64034E7003752C04D007D006D0D0D02E
:0211E800E032F3
:1015CF008E2E8F2FD3E52F9400E52E940050F52209
:1015A600438E805389F0758ACD758CD4C28DD28CCA
:0515B600D2A9D2AF2212
:1015DF00C2A7C2A68F80D2A512163FC2A502163F80
:1015EF00D2A7C2A68F80D2A512163FC2A502163F60
:0F15FF007F381215DF7F0C1215DF7F060215DF14
:10158F008D5FEF64017005E55F148004E55F243F14
:07159F004480FF1215DF225A
:0A1635008B5B12158FAF5B0215EFFF
:0614EA008B5B8A5C895D4A
:1014F000E4F55E12158FE4F55EAB5BAA5CA95D8531
:101500005E82758300120568FF60071215EF055EA5
:0215100080E772
:0115120022B6
:04157500AB05A90712
:101579007F017E00E4FAEAC39B500AE9FD7C001270
:0515890005A70A80F136
:01158E00223A
:0414A9008A0A8B0B15
:1014AD00E4F50E12158F850D0ED3E50E94007480A4
:1014BD0094804028E50E14FD7F0A121575AC0AAD17
:1014CD000BCFCDCFCECCCE1205B97C007D0A120547
:0C14DD00B9ED2430FF1215EF150E80CD84
:0114E90022E0
:050003007F010215DF82
:0A162A0000007F367EC6DEFEDFFC06
:011634002293
:09163F00007F0B7EBEDEFEDFFC25
:01164800227F
:0C161D007F167E037DE3DDFEDEFCDFFABD
:01162900229E
:10153A00E4FF2092010F2093027F022094027F038E
:0F154A002095027F042096027F0520B3027F06C2
:01155900226F
:0F160E00759D01E4F5BD75BC8012163F02163FB5
:1015BB00EF4488F5BC00000000E5BC30E4FB53BCF5
:0415CB00EFAFBD229F
:1013FF00EF14601D14602914603514603E240470CE
:10140F0048300009C2B4C2B5C2B6C2B722D2B48046
:10141F002F300009C2B7D2B4D2B5D2B622D2B7227A
:10142F00300009C2B6D2B4D2B5D2B722D2B622306A
:10143F000006C2B5D2B4800AD2B522300009C2B4B8
:0A144F00D2B5D2B6D2B722D2B42231
:10000E00020398E86480F8E933E83360110460F085
:10001E00ED33EC337009E8FCE9FDEAFEEBFF220458
:10002E0060DED3EB9FEA9EE99DE8C2E78CF0C2F753
:10003E0095F0400CE8CCF8E9CDF9EACEFAEBCFFB1F
:10004E0012036385D0F05804700320D5B3E8047012
:10005E00075002B2D50203A292D5EC0460F7E4CCAD
:10006E00C0E0C398F8603B94186008400DD0E0FBE8
:10007E0002037AE4FBFAC9FC8028E830E406E4C9FE
:10008E00FBE4CAFCE830E305E4C9CACBFCE854073C
:10009E006010F8C3E913F9EA13FAEB13FBEC13FC47
:1000AE00D8F130F52FC3E49CFCEF9BFFEE9AFEEDEA
:1000BE0099FDD0E0FBEF4E4D4C701222DB03020394
:1000CE009FEC2CFCEF33FFEE33FEED33FDED30E70E
:1000DE00EB02037AEF2BFFEE3AFEED39FDD0E0FB9B
:1000EE0050130BBB00030203A2ED13FDEE13FEEF44
:0800FE0013FFEC13FC02037A6E
:10010600EC4D6011E8497017ED33EC3304600DE4F3
:10011600FCFFFEFD22E933E8330470F8020398126F
:10012600036358046009E4CC248150062850090270
:1001360003A228400302039FC0E0EB4A7044B98043
:1001460006D0E0FB02038EEF4E701CBD8008EBFF6D
:10015600EAFEE9FD80EBE98DF0A4FEE5F00201EF91
:10016600E9CDF9EAFEEBFFEF89F0A4FCE5F0CE89D4
:10017600F0A42EFFE435F0CD89F0A42DFEE435F091
:100186008067EF4E7005BD80D780C3EF8BF0A4ACBF
:10019600F0EE8BF0A42CFCE435F0F8EF8AF0A42CFA
:1001A600E5F038FCE433CB8DF0A42CFCE5F03BF80D
:1001B600EE8AF0A42CFCE5F038F8E433CF89F0A4FD
:1001C6002CFCE5F038CF3400CE89F0A42FFFE5F003
:1001D6003EFEE433C98DF0A42EFEE5F039CD8AF05B
:1001E600A42FFFE5F03EFEE43DFD33D0E0FB5007D3
:1001F6000BBB000F0203A2EC2CFCEF33FFEE33FE29
:06020600ED33FD02037A56
:10020C000203A2EC5D046005E85904700302039834
:10021C00120363580460F6EC4860F2EC7004FDFEC7
:10022C00FF22C860DB2481C85009C39860025006C5
:10023C0002039F9850CAF582E9294B4A7005AB829C
:10024C0002038E75F0007C1A7880C3EF9BEE9AED5A
:10025C0099400DC3EF9BFFEE9AFEED99FDE842F03D
:10026C00DC23ACF0D0E0FFD0E0FED0E0FDAB822090
:10027C00E7101BEB60BAEC2CFCEF33FFEE33FEED1A
:10028C0033FD02037AE803F830E705C0F075F0009F
:10029C00EF2FFFEE33FEED33FD40B830E7C280AAFE
:1002AC0074F8CC6480CCC86480C8F58204604FC3F9
:1002BC00EB9FF5F0EA9E42F0E99D42F0E89C45F098
:1002CC00603C501DE5825FFFE582D313CB5BCBF422
:1002DC002B5582FB50280ABA002409B9002008804B
:1002EC001DE5825BFBE582D313CF5FCFF4C3132FE5
:1002FC005582FF50090EBE00050DBD00010CC3EB6D
:10030C009FF5F0EA9E42F0E99D42F0E89C45F060D2
:09031C0007CC4820E701B3EC22F4
:1003250075F020800E75F010800575F0087D007E53
:10033500007F003392D530D50312060EEC33401002
:10034500EF33FFEE33FEED33FDEC33FCD5F0ED225C
:0E035500E5F0247EA2D513CC92E7CDCEFF2298
:10068F00E572245EF8E6057222785B300702785E29
:10069F00E475F00112065902054F2000EB7F2ED2B0
:1006AF00008018EF540F2490D43440D4FF30040B43
:1006BF00EF24BFB41A0050032461FFE573600215E5
:1006CF00730576E5767002057530070D785BE47576
:1006DF00F001120659EF0205950215137403D207A4
:1006EF008003E4C207F5728B5B8A5C895DE4F57366
:1006FF00F575F576E57360077F201206CA80F575EC
:10070F0074FFC201C200C202C203C205C206C20800
:10071F00120698FF700D3007057F001206DBAF76CB
:10072F00AE7522B4255FC2D5C204120698FF24D03D
:10073F00B40A00501A75F00A787330D50508B6FF61
:10074F000106C6A426F620D5047002D20380D92450
:10075F00CFB41A00EF5004C2E5D2040209C8D20187
:10076F0080C6D20080C0D20280BCD2D580BAD2055A
:10077F0080B47F201206CA2002077401B5730040AF
:10078F00F112068FFF1206CA020703D208D20680A3
:10079F009512068FFB12068FFA12068FF94A4B70CD
:1007AF000679BF7A0A7BFF20022EE573602A7E004E
:1007BF008E8275830012056860060EEE657470F008
:1007CF00C2D5EBC0E0EAC0E0E9C0E0EE120A28D0E3
:1007DF00E0F9D0E0FAD0E0FB12054FFF60AAEBC0C2
:1007EF00E0EAC0E0E9C0E01206CAD0E02401F9D087
:1007FF00E03400FAD0E0FBE5740460DCD574D980F6
:10080F0087D20280A2120A0B60F7E57470010412FE
:10081F0003ADA974600DE574600914F574120AB282
:10082F00EF60F3EA30E702F404C3995077EAF42556
:10083F00740430E701E404F574800D120A0B60C1F3
:10084F00EA057425741203ADEA7871F630E701E416
:10085F00257404D5740420050114120A28E4C0E09D
:10086F00120AB27871E6601320E70714F61206B287
:10087F00802204F6D0E014C0E07F001206B2E574C7
:10088F0060071206A91574800B3005031206A9D054
:10089F00E0020703D0E00480C5120A0B60A0E574E4
:1008AF00041203AD7871EAF6E574200502600104C5
:0508BF002404120A28C8
:1008C40074FF04C0E0120AB21206B2E574200502F5
:1008D40060031206A9D0E0B574E87F451206BC781F
:1008E40071E67F2B30E7047F2DF404C0E01206CAC2
:1008F400D0E075F00A84C0F01206B3D0E01206B35B
:10090400020703791080027908C206C2088008D25F
:10091400D5790A8004790AC2D5E574047002F574A5
:10092400E4FAFDFEFF12068FFC7B08200113120679
:100934008FFD7B1030000A12068FFE12068FFF7B9C
:1009440020EC3382D592D55013C3E43000069FFFC8
:10095400E49EFEE42001039DFDE49CFCE4CBF8C28C
:1009640001EC700CCFCECDCCE824F8F870F38017EE
:10097400C3EF33FFEE33FEED33FDEC33FCEB33FB1F
:10098400994002FB0FD8E9EB300105F8D0E0C448E8
:10099400B201C0E00AEC4D4E4F78207B0070C2EAF1
:1009A400B5740040BCC0E0120A2AD0F0D0E02001A7
:1009B40004C4C0E0C4B201C0F01206B3D0F0D5F054
:1009C400EB02070312066907A05309075807714C85
:1009D400076D42090B4F091344091349078643095C
:1009E4001955084A4608A8450814470ADF500775F0
:1009F4002D07792E079C2B077D23079A200AC82AE6
:100A040007354800000794E574B4FF0375740612B3
:100A1400068FFC12068FFD12068FFE12068FFF78DA
:100A24006A0203DC790AA2D5200314300509B9103F
:100A3400020404B9080104A2D520060250010420CE
:100A440002689202B573005034C0E07F203003196D
:100A54007F30A20272067205500F120A81C202C2CE
:100A640006C205C2087F30800F300503E9C0E012DA
:100A740006CA300503D0E0F9D0E0B573CC300517D1
:100A84007F30B9100C1206CA7F583004077F788073
:100A940003B908031206CA3002057F2D0206CA7F75
:100AA400202008F87F2B2006F322920280CF7F00BB
:100AB400B407005005246AF8E6FF22286E756C6CB2
:100AC4002900D20112068F3001F8C201787330D5A3
:100AD4000108F60207352D5043495812068F2403A6
:100AE400B405004001E4900ADA931206BB743A128A
:0A0AF40006BBD20375730402090764
:10036300E9D2E7C933E833F892D5EDD2E7CD33ECE0
:0703730033FC5002B2D52259
:10037A00EC30E7100FBF000C0EBE00080DBD0004E4
:10038A000BEB6014A2D5EB13FCED92E7FD2274FF90
:10039A00FCFDFEFF22E480F8A2D574FF13FC7D80E9
:0303AA00E480EFFD
:1003AD00F920E72824F950037907E4F42402FB1817
:1003BD00DBFDE624FB5014E9600DE4F618E604F6C7
:0F03CD00B40A08E4F6D9F57401F60A22C2D52263
:1003DC00ED33EC3392D5FA602AB4FF33EDC2E77BF0
:1003EC00FF60067A047901E4227A04790A20D504A4
:1003FC007A047905224E614E002B494E46002D4958
:10040C004E4600E47A08F608DAFC7B00740722E812
:10041C00C0E0ECC0E0EDC0E0EEC0E0EFC0E0EA759B
:10042C00F010A4CAABF075F04DA42BFBE435F0FC36
:10043C00EA2410FAEB34C5FBEC34D9FCEDC2E7FF2F
:10044C0075F056A4F42411C5F0F434C58FF0A42A29
:10045C00E5F03BE43CF620E71412050FD0E0FFD0AA
:10046C00E0FED0E0FDD0E0FC12020F8014F4041288
:10047C00050FD0E0FFD0E0FED0E0FDD0E0FC120193
:10048C0006D0E0F8E6FAEDD2E7CD33EC332482FB6C
:10049C00E4C3CF33CFCE33CECD33CD33DBF37B07B9
:1004AC0075F00A846004F6081B0AE5F0F6088FF074
:1004BC00740AA4FFACF08EF0740AA42CFEACF050BD
:1004CC00010C8DF0740AA42CFDE435F0F608DBDE8B
:0304DC0074072280
:1004DF003F8000004120000042C80000447A000025
:1004EF00461C400047C35000497424004B189680A7
:1004FF004CBEBC205A0E1BCA6753C21C749DC5AE9E
:10050F00FB60065407601C232312053DEB54386033
:10051F0009120529120538120106ECF8EDF9EEFA69
:10052F00EFCB22EB12053880F1543803241C9004D2
:10053F00DFFE93FC0EEE93FD0EEE930ECE93FF2295
:0300000002128564
:0C128500787FE4F6D8FD7581760212CC6B
:10054F00BB010689828A83E0225002E722BBFE02AA
:09055F00E32289828A83E49322DD
:10056800BB010CE58229F582E5833AF583E0225048
:1005780006E92582F8E622BBFE06E92582F8E22292
:0D058800E58229F582E5833AF583E49322AC
:10059500BB010689828A83F0225002F722BBFE0145
:0205A500F3223F
:1005A700EF8DF0A4A8F0CF8CF0A428CE8DF0A42E68
:0205B700FE2222
:1005B900BC000BBE0029EF8DF084FFADF022E4CC26
:1005C900F875F008EF2FFFEE33FEEC33FCEE9DECEF
:1005D900984005FCEE9DFE0FD5F0E9E4CEFD22ED35
:1005E900F8F5F0EE8420D21CFEADF075F008EF2F7F
:1005F900FFED33FD4007985006D5F0F222C398FD70
:050609000FD5F0EA220C
:0E060E00C3E49FFFE49EFEE49DFDE49CFC22FD
:0C061C00ECF0A3EDF0A3EEF0A3EFF02251
:10062800A8828583F0D083D08212063F12063F123B
:10063800063F12063FE473E493A3C583C5F0C58360
:10064800C8C582C8F0A3C583C5F0C583C8C582C81C
:01065800227F
:10065900FAE6FB0808E6F925F0F618E6CA3AF622A2
:10066900D083D082F8E4937012740193700DA3A320
:1006790093F8740193F5828883E473740293686034
:06068900EFA3A3A380DF34
:10151300EFB40A07740D12151E740A309811A899B6
:10152300B8130CC2983098FDA899C298B811F63038
:0715330099FDC299F5992210
:101390008B5B8A5C895DAB5EAA5FA96012054FFE1C
:1013A000AB5BAA5CA95D12054FFF6E702BEF600D61
:1013B000E56215627002156114456170037F0022B9
:1013C0007401255DF55DE4355CF55C74012560F51F
:1013D00060E4355FF55F80BEAB5BAA5CA95D12057A
:1013E0004FFDD3EE6480F8ED64809840037F0122C6
:0F13F000AB5EAA5FA96012054FFFC3ED9FFF22FE
:1012910002155AE493A3F8E493A34003F68001F204
:1012A10008DFF48029E493A3F85407240CC8C3335E
:1012B100C4540F4420C8834004F456800146F6DF2D
:1012C100E4800B0102040810204080901311E47E99
:1012D100019360BCA3FF543F30E509541FFEE49322
:1012E100A360010ECF54C025E060A840B8E493A3E9
:1012F100FAE493A3F8E493A3C8C582C8CAC583CA14
:10130100F0A3C8C582C8CAC583CADFE9DEE780BECB
:01138F00005D
:00000001FF
