:100E120025332E3266005072657373204F4B205378
:100E2200746172742100496E70757420506173731D
:100E3200776F7264004552524F52005249474854EC
:010E420000AF
:100E43000230000002320000044030303030012B09
:100E530000012F0502220000024600000648303040
:0F0E6300303030300625383736353433012E0025
:100F3D00120F14120F80120F8FD2B4120B53120A0C
:030F4D004880F8E1
:100A4800E54745466003020B52F546754701E52B1D
:100A58006003020ADEFF120F298F3BAC3BE4120051
:100A6800B8E4FBFA794C78421200118F3A8E398D2E
:100A7800388C377551FF75520E7553128F578E5635
:100A88008D558C547B007A0079401206357F0C1204
:100A98000F607BFF7A0E79187D017F01120E73AB10
:100AA800407D017F02120FB6AB417D027F02120F1B
:100AB800B6AB427D037F02120FB6AB437D047F02C3
:100AC800120FB6755200755304AB3DAA3C7D087FE2
:100AD80002120DD18053E52B6401701E7F0F120F97
:100AE800607BFF7A0E79287D027F01120E737B00EE
:100AF8007A0079487D067F02802CE52B640270110C
:100B08007F0C120F607BFF7A0E79377D067F01809C
:100B180015E52B640370127F0C120F607BFF7A0EB1
:100B2800793D7D067F01120E73AF2BEF64026005DD
:100B3800EF6403700D7FD07E07120F50120003E49C
:0B0B4800F52BE52F24C0FF120F6022E8
:100B5300E52345226003020C4FF522752301120E93
:100B6300C38F36E536653FFF5536F53EE536F45F10
:100B7300F52485363FE53E6006753C07753DD0E5B7
:100B83003F6025E53D453C701F120003752B01E4D2
:100B9300F52ED3E52E940574809480500B7448256C
:100BA3002EF87630052E80EAE53D453C7003020CB5
:100BB3004FE52424FE601A14602C14603C14604B2F
:100BC30014605A24056003020C4FA2B4B392B4809C
:100BD300767443252FF8067443252FF8E6D394390A
:100BE3004002763980617443252FF8167443252F0C
:100BF300F8E6B42F027630804E152FD3E52F9405F7
:100C0300748094805003752F05803C052FC3E52F16
:100C1300940A748094804003752F0A802A1200037B
:100C23007551007552007553257554007555067B33
:100C3300007A007948120D62EF3395E04F70057525
:0D0C43002B038003752B02E4F53CF53D22E8
:03000B00020CDC08
:100CDC00C0E0C0D00523E52370020522640A45223A
:100CEC007004F522F5230547E5477002054664C8F4
:100CFC0045467004F546F547D3E52D9400E52C9454
:100D0C00004008E52D152D7002152CD3E53D9400FF
:100D1C00E53C94004008E53D153D7002153C053559
:100D2C00E53570020534C394E8E534940340067548
:100D3C0034007535000545E54570020544C394E85B
:100D4C00E5449403400BA2A2B392A27544007545EE
:060D5C0000D0D0D0E0320F
:100F50008E2C8F2DD3E52D9400E52C940050F52296
:100F1400438E805389F0758ACD758CD4C28DD28C62
:050F2400D2A9D2AF22AA
:100F6000C2A7C2A68F80D2A5120FC0C2A5020FC011
:100F7000D2A7C2A68F80D2A5120FC0C2A5020FC0F1
:0F0F80007F38120F607F0C120F607F06020F6028
:100EFD008D55EF64017005E555148004E555243FCB
:070F0D004480FF120F602277
:0A0FB6008B4E120EFDAF4E020F70BD
:060E73008B4E8A4F8950EE
:100E7900E4F551120EFDE4F551AB4EAA4FA9508588
:100E890051827583001204EFFF6007120F7005513C
:020E990080E7F0
:010E9B002234
:040EE300AB05A907AB
:100EE7007F017E00E4FAEAC39B500AE9FD7C001209
:050EF700052E0A80F148
:010EFC0022D3
:040DD1008A508B5168
:100DD500E4F554120EFD855354D3E5549400748004
:100DE50094804028E55414FD7F0A120EE3AC50AD03
:100DF50051CFCDCFCECCCE1205407C007D0A120559
:0C0E050040ED2430FF120F70155480CD1A
:010E110022BE
:050003007F01020F6007
:0A0FAB0000007F367EC6DEFEDFFC8C
:010FB5002219
:090FC000007F0B7EBEDEFEDFFCAB
:010FC9002205
:0C0F9E007F167E037DE3DDFEDEFCDFFA43
:010FAA002224
:100EC300E4FF2092010F2093027F022094027F030C
:0F0ED3002095027F042096027F0520B3027F0640
:010EE20022ED
:0F0F8F00759D01E4F5BD75BC80120FC0020FC047
:100F2900EF4488F5BC00000000E5BC30E4FB53BC8D
:040F3900EFAFBD2237
:10000E0002012BEC5D046005E85904700302012126
:10001E001200EC580460F6EC4860F2EC7004FDFE41
:10002E00FF22C860DB2481C85009C39860025006C5
:10003E000201289850CAF582E9294B4A7005AB8215
:10004E0002011775F0007C1A7880C3EF9BEE9AEDD3
:10005E0099400DC3EF9BFFEE9AFEED99FDE842F03D
:10006E00DC23ACF0D0E0FFD0E0FED0E0FDAB822090
:10007E00E7101BEB60BAEC2CFCEF33FFEE33FEED1A
:10008E0033FD020103E803F830E705C0F075F00018
:10009E00EF2FFFEE33FEED33FD40B830E7C280AAFE
:1000AE0075F020800E75F010800575F0087D007ECD
:1000BE00007F003392D530D503120595EC334010F6
:1000CE00EF33FFEE33FEED33FDEC33FCD5F0ED22D6
:0E00DE00E5F0247EA2D513CC92E7CDCEFF2212
:1005D900E5652451F8E6056522784E300702785121
:1005E900E475F0011205A30204D62000EB7F2ED298
:1005F900008018EF540F2490D43440D4FF30040BFA
:10060900EF24BFB41A0050032461FFE566600215A8
:10061900660569E5697002056830070D784EE4756D
:10062900F0011205A3EF02051C020E9C7403D20708
:100639008003E4C207F5658B4E8A4F8950E4F5665D
:10064900F568F569E56660077F2012061480F5757F
:1006590067FFC201C200C202C203C205C206C208C4
:100669001205E2FF700D3007057F00120625AF69FC
:10067900AE6822B4255FC2D5C2041205E2FF24D0B8
:10068900B40A00501A75F00A786630D50508B6FF25
:100699000106C6A426F620D5047002D20380D92407
:1006A900CFB41A00EF5004C2E5D204020912D201F4
:1006B90080C6D20080C0D20280BCD2D580BAD20511
:1006C90080B47F201206142002077401B566004029
:1006D900F11205D9FF12061402064DD208D206807E
:1006E900951205D9FB1205D9FA1205D9F94A4B70A9
:1006F9000679097A0A7BFF20022EE566602A7E00C8
:100709008E827583001204EF60060EEE656770F045
:10071900C2D5EBC0E0EAC0E0E9C0E0EE120972D050
:10072900E0F9D0E0FAD0E0FB1204D6FF60AAEBC0F2
:10073900E0EAC0E0E9C0E0120614D0E02401F9D0F3
:10074900E03400FAD0E0FBE5670460DCD567D980C6
:1007590087D20280A212095560F7E5677001041279
:100769000136A967600DE567600914F5671209FC90
:10077900EF60F3EA30E702F404C3995077EAF4250D
:10078900670430E701E404F567800D12095560C17B
:10079900EA05672567120136EA7864F630E701E46D
:1007A900256704D5670420050114120972E4C0E025
:1007B9001209FC7864E6601320E70714F61205FCB9
:1007C900802204F6D0E014C0E07F001205FCE56742
:1007D90060071205F31567800B3005031205F3D086
:1007E900E002064DD0E00480C512095560A0E56716
:1007F900041201367864EAF6E5672005026001040F
:05080900240412097235
:10080E0074FF04C0E01209FC1205FCE56720050226
:10081E0060031205F3D0E0B567E87F45120606784F
:10082E0064E67F2B30E7047F2DF404C0E01206143B
:10083E00D0E075F00A84C0F01205FDD0E01205FD7F
:10084E0002064D791080027908C206C2088008D2CD
:10085E00D5790A8004790AC2D5E567047002F56776
:10086E00E4FAFDFEFF1205D9FC7B082001131205E8
:10087E00D9FD7B1030000A1205D9FE1205D9FF7B77
:10088E0020EC3382D592D55013C3E43000069FFF7F
:10089E00E49EFEE42001039DFDE49CFCE4CBF8C243
:1008AE0001EC700CCFCECDCCE824F8F870F38017A5
:1008BE00C3EF33FFEE33FEED33FDEC33FCEB33FBD6
:1008CE00994002FB0FD8E9EB300105F8D0E0C4489F
:1008DE00B201C0E00AEC4D4E4F78207B0070C2EAA8
:1008EE00B5670040BCC0E0120974D0F0D0E0200122
:1008FE0004C4C0E0C4B201C0F01205FDD0F0D5F0C2
:10090E00EB02064D1205B306EA5308515806BB4CCE
:10091E0006B74208554F085D44085D4906D04308A6
:10092E00635507944607F245075E470A295006BFEE
:10093E002D06C32E06E62B06C72306E4200A122A2E
:10094E00067F48000006DEE567B4FF0375670612F2
:10095E0005D9FC1205D9FD1205D9FE1205D9FF786D
:10096E005D020165790AA2D5200314300509B9107C
:10097E00020404B9080104A2D52006025001042085
:10098E0002689202B566005034C0E07F2030031931
:10099E007F30A20272067205500F1209CBC202C23C
:1009AE0006C205C2087F30800F300503E9C0E01291
:1009BE000614300503D0E0F9D0E0B566CC3005174B
:1009CE007F30B9100C1206147F583004077F7880E0
:1009DE0003B908031206143002057F2D0206147F98
:1009EE00202008F87F2B2006F322920280CF7F0072
:1009FE00B407005005245DF8E6FF22286E756C6C76
:100A0E002900D2011205D93001F8C201786630D51D
:100A1E000108F602067F2D504349581205D92403CA
:100A2E00B405004001E4900A2493120605743A12AC
:0A0A3E000605D20375660402085194
:1000EC00E9D2E7C933E833F892D5EDD2E7CD33EC5A
:0700FC0033FC5002B2D522D3
:10010300EC30E7100FBF000C0EBE00080DBD00045D
:100113000BEB6014A2D5EB13FCED92E7FD2274FF09
:10012300FCFDFEFF22E480F8A2D574FF13FC7D8062
:03013300E480EF76
:10013600F920E72824F950037907E4F42402FB1890
:10014600DBFDE624FB5014E9600DE4F618E604F640
:0F015600B40A08E4F6D9F57401F60A22C2D522DC
:10016500ED33EC3392D5FA602AB4FF33EDC2E77B69
:10017500FF60067A01798AE4227A01799320D50411
:100185007A01798E224E614E002B494E46002D494B
:100195004E4600E47A08F608DAFC7B00740722E88C
:1001A500C0E0ECC0E0EDC0E0EEC0E0EFC0E0EA7515
:1001B500F010A4CAABF075F04DA42BFBE435F0FCB0
:1001C500EA2410FAEB34C5FBEC34D9FCEDC2E7FFA9
:1001D50075F056A4F42411C5F0F434C58FF0A42AA3
:1001E500E5F03BE43CF620E714120496D0E0FFD09E
:1001F500E0FED0E0FDD0E0FC1200118014F4041202
:100205000496D0E0FFD0E0FED0E0FDD0E0FC120384
:1002150060D0E0F8E6FAEDD2E7CD33EC332482FB8B
:10022500E4C3CF33CFCE33CECD33CD33DBF37B0732
:1002350075F00A846004F6081B0AE5F0F6088FF0ED
:10024500740AA4FFACF08EF0740AA42CFEACF05036
:10025500010C8DF0740AA42CFDE435F0F608DBDE04
:03026500740722F9
:10026800020121E86480F8E933E83360110460F0A2
:10027800ED33EC337009E8FCE9FDEAFEEBFF2204FC
:1002880060DED3EB9FEA9EE99DE8C2E78CF0C2F7F7
:1002980095F0400CE8CCF8E9CDF9EACEFAEBCFFBC3
:1002A8001200EC85D0F05804700320D5B3E8047030
:1002B800075002B2D502012B92D5EC0460F7E4CCCA
:1002C800C0E0C398F8603B94186008400DD0E0FB8C
:1002D800020103E4FBFAC9FC8028E830E406E4C91B
:1002E800FBE4CAFCE830E305E4C9CACBFCE85407E0
:1002F8006010F8C3E913F9EA13FAEB13FBEC13FCEB
:10030800D8F130F52FC3E49CFCEF9BFFEE9AFEED8D
:1003180099FDD0E0FBEF4E4D4C701222DB03020139
:1003280028EC2CFCEF33FFEE33FEED33FDED30E728
:10033800EB020103EF2BFFEE3AFEED39FDD0E0FBB7
:1003480050130BBB000302012BED13FDEE13FEEF60
:0803580013FFEC13FC0201038A
:10036000EC4D6011E8497017ED33EC3304600DE497
:10037000FCFFFEFD22E933E8330470F8020121128C
:1003800000EC58046009E4CC24815006285009028E
:10039000012B284003020128C0E0EB4A7044B980D9
:1003A00006D0E0FB020117EF4E701CBD8008EBFF8A
:1003B000EAFEE9FD80EBE98DF0A4FEE5F0020449D8
:1003C000E9CDF9EAFEEBFFEF89F0A4FCE5F0CE8978
:1003D000F0A42EFFE435F0CD89F0A42DFEE435F035
:1003E0008067EF4E7005BD80D780C3EF8BF0A4AC63
:1003F000F0EE8BF0A42CFCE435F0F8EF8AF0A42C9E
:10040000E5F038FCE433CB8DF0A42CFCE5F03BF8B0
:10041000EE8AF0A42CFCE5F038F8E433CF89F0A4A0
:100420002CFCE5F038CF3400CE89F0A42FFFE5F0A6
:100430003EFEE433C98DF0A42EFEE5F039CD8AF0FE
:10044000A42FFFE5F03EFEE43DFD33D0E0FB500776
:100450000BBB000F02012BEC2CFCEF33FFEE33FE45
:06046000ED33FD02010373
:100466003F8000004120000042C80000447A00009E
:10047600461C400047C35000497424004B18968020
:100486004CBEBC205A0E1BCA6753C21C749DC5AE17
:10049600FB60065407601C23231204C4EB54386027
:1004A600091204B01204BF120360ECF8EDF9EEFA7B
:1004B600EFCB22EB1204BF80F1543803241C9004C6
:1004C60066FE93FC0EEE93FD0EEE930ECE93FF2288
:03000000020C509F
:0C0C5000787FE4F6D8FD758169020C97EE
:1004D600BB010689828A83E0225002E722BBFE0224
:0904E600E32289828A83E4932257
:1004EF00BB010CE58229F582E5833AF583E02250C2
:1004FF0006E92582F8E622BBFE06E92582F8E2220C
:0D050F00E58229F582E5833AF583E4932225
:10051C00BB010689828A83F0225002F722BBFE01BE
:02052C00F322B8
:10052E00EF8DF0A4A8F0CF8CF0A428CE8DF0A42EE1
:02053E00FE229B
:10054000BC000BBE0029EF8DF084FFADF022E4CC9F
:10055000F875F008EF2FFFEE33FEEC33FCEE9DEC68
:10056000984005FCEE9DFE0FD5F0E9E4CEFD22EDAE
:10057000F8F5F0EE8420D21CFEADF075F008EF2FF8
:10058000FFED33FD4007985006D5F0F222C398FDE9
:050590000FD5F0EA2286
:0E059500C3E49FFFE49EFEE49DFDE49CFC2277
:1005A300FAE6FB0808E6F925F0F618E6CA3AF62259
:1005B300D083D082F8E4937012740193700DA3A3D7
:1005C30093F8740193F5828883E4737402936860EB
:0605D300EFA3A3A380DFEB
:100E9C00EFB40A07740D120EA7740A309811A899B2
:100EAC00B8130CC2983098FDA899C298B811F630B6
:070EBC0099FDC299F599228E
:100D62008B4E8A4F8950AB51AA52A9531204D6FE18
:100D7200AB4EAA4FA9501204D6FF6E702BEF600D36
:100D8200E55515557002155414455470037F002221
:100D920074012550F550E4354FF54F74012553F594
:100DA20053E43552F55280BEAB4EAA4FA9501204FD
:100DB200D6FDD3EE6480F8ED64809840037F012273
:0F0DC200AB51AA52A9531204D6FFC3ED9FFF22D3
:100C5C00020F3DE493A3F8E493A34003F68001F262
:100C6C0008DFF48029E493A3F85407240CC8C33399
:100C7C00C4540F4420C8834004F456800146F6DF68
:100C8C00E4800B0102040810204080900E43E47EA7
:100C9C00019360BCA3FF543F30E509541FFEE4935D
:100CAC00A360010ECF54C025E060A840B8E493A324
:100CBC00FAE493A3F8E493A3C8C582C8CAC583CA4F
:100CCC00F0A3C8C582C8CAC583CADFE9DEE780BE07
:010E7200007F
:00000001FF
