:0700030048656C6C6F2100E1
:08028D00021000000212000043
:10016F0012022EC2A312021AC2B6D2AF7BFF7A00BE
:10017F0079037D027F0212019B750C00750D04AB94
:0C018F0013AA127D017F0112012E80E0F6
:03000B000201C42B
:1001C400C0E0C0D020A3190513E51370020512C3C3
:1001D40094F4E51294014008D2A37512007513003B
:0501E400D0D0D0E03294
:10022E00438E805389F0758ACD758CD4C28DD28C55
:03023E00D2A92220
:10024100C2A7C2A68F80D2A5120283C2A5020283D1
:10025100D2A7C2A68F80D2A5120283C2A5020283B1
:10021A007F381202417F0C1202417F061202417F8F
:04022A00010202418A
:100203008D0FEF64017005E50F148004E50F243FA3
:070213004480FF12024122AA
:0A0279008B14120203AF14020251AD
:06019B008B088A09890AA5
:1001A100E4F50B120203E4F50BAB08AA09A90A85D1
:1001B1000B8275830012000EFF6007120251050BBE
:0201C10080E7D5
:0101C3002219
:0401E900AB05A907B2
:1001ED007F017E00E4FAEAC39B500AE9FD7C001210
:0501FD00003B0A80F147
:0102020022D9
:04012E008A0A8B0BA3
:10013200E4F50E120203850D0ED3E50E94007480D1
:1001420094804028E50E14FD7F0A1201E9AC0AAD45
:100152000BCFCDCFCECCCE12004D7C007D0A12004B
:0C0162004DED2430FF120251150E80CD2F
:01016E00226E
:0A026E0000007F367EC6DEFEDFFCD6
:010278002263
:09028300007F0B7EBEDEFEDFFCF5
:01028C00224F
:0C0261007F167E037DE3DDFEDEFCDFFA8D
:01026D00226E
:030000000200A259
:0C00A200787FE4F6D8FD7581140200E9B7
:10000E00BB010CE58229F582E5833AF583E02250A7
:10001E0006E92582F8E622BBFE06E92582F8E222F1
:0D002E00E58229F582E5833AF583E493220B
:10003B00EF8DF0A4A8F0CF8CF0A428CE8DF0A42ED9
:02004B00FE2293
:10004D00BC000BBE0029EF8DF084FFADF022E4CC97
:10005D00F875F008EF2FFFEE33FEEC33FCEE9DEC60
:10006D00984005FCEE9DFE0FD5F0E9E4CEFD22EDA6
:10007D00F8F5F0EE8420D21CFEADF075F008EF2FF0
:10008D00FFED33FD4007985006D5F0F222C398FDE1
:05009D000FD5F0EA227E
:1000AE0002016FE493A3F8E493A34003F68001F2F8
:1000BE0008DFF48029E493A3F85407240CC8C33353
:1000CE00C4540F4420C8834004F456800146F6DF22
:1000DE00E4800B010204081020408090028DE47E23
:1000EE00019360BCA3FF543F30E509541FFEE49317
:1000FE00A360010ECF54C025E060A840B8E493A3DE
:10010E00FAE493A3F8E493A3C8C582C8CAC583CA08
:10011E00F0A3C8C582C8CAC583CADFE9DEE780BEC0
:010295000068
:00000001FF
