:1003720048656C6C6F2100496E7075742050617312
:0603820073776F72640046
:1002FE00020D0000020F0000010B00010C050208A8
:10030E0000000218000002160000061A30303030CD
:02031E0030307D
:10039B001203881203CDC2B6D2AF12000E1201D1D6
:0203AB0080F8D8
:1001D100E5194518706CF518751901E50B70367F36
:1001E1000C1203AD7BFF7A0379727D017F0212024B
:1001F100D5752400752504AB17AA167D017F011260
:100201000294752400752504AB13AA127D087F01A1
:100211001202948025E50B6401701F7F0F1203AD5C
:100221007BFF7A0379797D027F011202D57B007A07
:1002310000791A7D067F021202D5E50C24C0FF1257
:0302410003AD22E8
:10000E00E509450860030200B0F508750901120301
:10001E00218F11E5116515FF5511F514E511F45FEA
:10002E00F50A851115E51460067512077513D0E5EE
:10003E0015600CE51345127006120003750B01E5F1
:10004E000A24FE601314602514602A1460391460AB
:10005E004C2405704DD2A2227415250CF806741589
:10006E00250CF8E6D39439401C7639801874152582
:10007E000CF8168022150CD3E50C94057480948030
:10008E005003750C058010050CC3E50C940A7480A2
:10009E0094804003750C0AE4F512F51322A2A2B364
:0300AE0092A222F9
:03000B00020244AA
:10024400C0E0C0D075D000C006C0070509E509703C
:10025400020508640A45087004F508F5090519E55E
:100264001970020518FFAE18BE0109BF2C067518D7
:1002740000751900D3E5139400E51294004008E5D5
:1002840013151370021512D007D006D0D0D0E03267
:10038800438E805389F0758ACD758CD4C28DD28CFA
:03039800D2A922C5
:1003AD00C2A7C2A68F80D2A51203FEC2A50203FE6C
:1003BD00D2A7C2A68F80D2A51203FEC2A50203FE4C
:0F03CD007F381203AD7F0F1203AD7F060203AD21
:10035B008D27EF64017005E527148004E527243F02
:07036B004480FF1203AD22E4
:0A03F4008B2812035BAF280203BD43
:0602D5008B208A21892222
:1002DB00E4F52312035BE4F523AB20AA21A92285C5
:1002EB0023827583001200B1FF60071203BD052343
:0202FB0080E79A
:0102FD0022DE
:04034100AB05A90758
:100345007F017E00E4FAEAC39B500AE9FD7C0012B6
:0503550000DE0A80F14A
:01035A002280
:040294008A228B230C
:10029800E4F52612035B852526D3E52694007480B1
:1002A80094804028E52614FD7F0A120341AC22AD54
:1002B80023CFCDCFCECCCE1200F07C007D0A120029
:0C02C800F0ED2430FF1203BD152680CDA0
:0102D4002207
:050003007F010203ADC6
:0A03E90000007F367EC6DEFEDFFC5A
:0103F30022E7
:0903FE00007F0B7EBEDEFEDFFC79
:0104070022D2
:0C03DC007F167E037DE3DDFEDEFCDFFA11
:0103E80022F2
:10032100E4FF2092010F2093027F022094027F03B9
:0F0331002095027F042096027F0520B3027F06ED
:01034000229A
:03000000020145B5
:0C014500787FE4F6D8FD75812802018C5B
:1000B100BB010CE58229F582E5833AF583E0225004
:1000C10006E92582F8E622BBFE06E92582F8E2224E
:0D00D100E58229F582E5833AF583E4932268
:1000DE00EF8DF0A4A8F0CF8CF0A428CE8DF0A42E36
:0200EE00FE22F0
:1000F000BC000BBE0029EF8DF084FFADF022E4CCF4
:10010000F875F008EF2FFFEE33FEEC33FCEE9DECBC
:10011000984005FCEE9DFE0FD5F0E9E4CEFD22ED02
:10012000F8F5F0EE8420D21CFEADF075F008EF2F4C
:10013000FFED33FD4007985006D5F0F222C398FD3D
:050140000FD5F0EA22DA
:1001510002039BE493A3F8E493A34003F68001F226
:1001610008DFF48029E493A3F85407240CC8C333AF
:10017100C4540F4420C8834004F456800146F6DF7E
:10018100E4800B01020408102040809002FEE47E0E
:10019100019360BCA3FF543F30E509541FFEE49373
:1001A100A360010ECF54C025E060A840B8E493A33A
:1001B100FAE493A3F8E493A3C8C582C8CAC583CA65
:1001C100F0A3C8C582C8CAC583CADFE9DEE780BE1D
:0103200000DC
:00000001FF
