:0700030048656C6C6F2100E1
:1002AE00020A0000020C0000020800000213000007
:0402BE000211000029
:1002C3001202EBC2A31202D7C2B6D2AF12012E1290
:0402D300020A80F8A3
:10020A00E51445137023F5137514017BFF7A007901
:10021A00037D027F02120234751900751A04AB12AB
:0A022A00AA117D017F011201C92213
:10012E00E5094508704BF50875090112025D8F0F40
:10013E00E50F6510550FF50E850F1024FE600D149A
:10014E00601D2402702BA2A2B392A222E5121512F8
:10015E00700215111445117018F51175120A220549
:10016E0012E51270020511640A45117004F511F5BD
:02017E0012224B
:03000B000201806F
:10018000C0E0C0D00509E50970020508640A450809
:100190007004F508F5090514E5147002051364648C
:1001A00045137004F513F51420A319050DE50D7022
:1001B00002050CC394F4E50C94014008D2A3750C1D
:0901C00000750D00D0D0D0E03232
:1002EB00438E805389F0758ACD758CD4C28DD28C98
:0302FB00D2A92263
:1002FE00C2A7C2A68F80D2A5120340C2A502034098
:10030E00D2A7C2A68F80D2A5120340C2A502034077
:1002D7007F381202FE7F0C1202FE7F061202FE7F9B
:0402E700010202FE10
:100297008D1CEF64017005E51C148004E51C243FE8
:0702A7004480FF1202FE2259
:0A0336008B1D120297AF1D02030E8B
:060234008B158A168917E4
:10023A00E4F518120297E4F518AB15AA16A9178562
:10024A00188275830012000EFF600712030E05184C
:02025A0080E73B
:01025C00227F
:04027D00AB05A9071D
:100281007F017E00E4FAEAC39B500AE9FD7C00127B
:05029100003B0A80F1B2
:010296002245
:0401C9008A178B18EE
:1001CD00E4F51B120297851A1BD3E51B940074806E
:1001DD0094804028E51B14FD7F0A12027DAC17ADFB
:1001ED0018CFCDCFCECCCE12004D7C007D0A1200A3
:0C01FD004DED2430FF12030E151B80CDC9
:0102090022D2
:0A032B0000007F367EC6DEFEDFFC18
:0103350022A5
:09034000007F0B7EBEDEFEDFFC37
:010349002291
:0C031E007F167E037DE3DDFEDEFCDFFACF
:01032A0022B0
:10025D00E4FF2092010F2093027F022094027F037E
:0F026D002095027F042096027F0520B3027F06B2
:01027C00225F
:030000000200A259
:0C00A200787FE4F6D8FD75811D0200E9AE
:10000E00BB010CE58229F582E5833AF583E02250A7
:10001E0006E92582F8E622BBFE06E92582F8E222F1
:0D002E00E58229F582E5833AF583E493220B
:10003B00EF8DF0A4A8F0CF8CF0A428CE8DF0A42ED9
:02004B00FE2293
:10004D00BC000BBE0029EF8DF084FFADF022E4CC97
:10005D00F875F008EF2FFFEE33FEEC33FCEE9DEC60
:10006D00984005FCEE9DFE0FD5F0E9E4CEFD22EDA6
:10007D00F8F5F0EE8420D21CFEADF075F008EF2FF0
:10008D00FFED33FD4007985006D5F0F222C398FDE1
:05009D000FD5F0EA227E
:1000AE000202C3E493A3F8E493A34003F68001F2A3
:1000BE0008DFF48029E493A3F85407240CC8C33353
:1000CE00C4540F4420C8834004F456800146F6DF22
:1000DE00E4800B01020408102040809002AEE47E02
:1000EE00019360BCA3FF543F30E509541FFEE49317
:1000FE00A360010ECF54C025E060A840B8E493A3DE
:10010E00FAE493A3F8E493A3C8C582C8CAC583CA08
:10011E00F0A3C8C582C8CAC583CADFE9DEE780BEC0
:0102C200003B
:00000001FF
