:0E01720048656C6C6F2159696E797565720075
:10011700C2A212012B7BFF7A0179727D027F021244
:0401270000D480F18F
:10015200C2A7C2A68F80D2A51201AEC2A50201AE6D
:10016200D2A7C2A68F80D2A51201AEC2A50201AE4D
:10012B007F381201527F0C1201527F061201527F4F
:04013B00010201526A
:10013F008D13E513BF0103148002243F4480FF1287
:03014F0001522238
:0A01A4008B1412013FAF1402016238
:0600D4008B0F8A10891158
:1000DA00E4F51212013FE4F512AB0FAA10A911853B
:1000EA001282758300120003FF6007120162051273
:0200FA0080E79D
:0100FC0022E1
:0400FD00AB05A9079F
:100101007F017E00E4FAEAC39B500AE9FD7C0012FC
:0501110000300A80F13E
:0101160022C6
:040097008A0A8B0B3B
:10009B00E4F50E12013F850D0EE50ED394004028BA
:1000AB00E50E14FD7F0A1200FDAC0AAD0BCFCDCFD0
:1000BB00CECCCE1200427C007D0A120042ED2430E1
:0800CB00FF120162150E80D145
:0100D300220A
:0A01990000007F367EC6DEFEDFFCAC
:0101A3002239
:0901AE00007F0B7EBEDEFEDFFCCB
:0101B7002225
:0C0180007F167E037DE3DDFEDEFCDFFA6F
:01018C002250
:0300000002018D6D
:0C018D00787FE4F6D8FD7581140201179C
:10000300BB010CE58229F582E5833AF583E02250B2
:1000130006E92582F8E622BBFE06E92582F8E222FC
:0D002300E58229F582E5833AF583E4932216
:10003000EF8DF0A4A8F0CF8CF0A428CE8DF0A42EE4
:02004000FE229E
:10004200BC000BBE0029EF8DF084FFADF022E4CCA2
:10005200F875F008EF2FFFEE33FEEC33FCEE9DEC6B
:10006200984005FCEE9DFE0FD5F0E9E4CEFD22EDB1
:10007200F8F5F0EE8420D21CFEADF075F008EF2FFB
:10008200FFED33FD4007985006D5F0F222C398FDEC
:050092000FD5F0EA2289
:00000001FF
