:1000AA00C2A21200037511027B337D017F02120086
:0300BA009180F53D
:100003007F381200BD12010F7F381200BD12010F9D
:100013007F381200BD12010F7F381200BD7F081216
:1000230000BD7F011200BD7F061200BD12010F7FCC
:040033000C0200BDFE
:1000BD008F101200E340FBC2A7C2A6851080D2A507
:0300CD00C2A522A7
:1000D0008F101200E340FBD2A7C2A6851080D2A5E4
:0300E000C2A52294
:100091008D0E8B0FE50EBF0103148002243F4480B7
:0900A100FF1200BDAF0F0200D0F8
:0A0037008F088D098B0A8A0B890CD3
:10004100E4F50DAB0AAA0BA90C850D82758300128C
:100051000064FB600DAF080508AD09120091050DA4
:0200610080E13C
:01006300227A
:1000E300C2A7D2A6C2A512011A00D2A512011AE50F
:0300F30080332235
:0A010F0000007F367EC6DEFEDFFC36
:0101190022C3
:09011A00007F0B7EBEDEFEDFFC5F
:0101230022B9
:0C00F6007F167E037DE3DDFEDEFCDFFAFA
:0101020022DA
:03000000020103F7
:0C010300787FE4F6D8FD7581110200AA97
:10006400BB010CE58229F582E5833AF583E0225051
:1000740006E92582F8E622BBFE06E92582F8E2229B
:0D008400E58229F582E5833AF583E49322B5
:00000001FF
