:0700030048656C6C6F2100E1
:10027B00020A0000020C0000010F00010E00011029
:05028B00000208000064
:1001D9001202A5C2A3120291C2B6D2AF7BFF7A0066
:1001E90079037D027F02120205751700751804ABA9
:0C01F90012AA117D017F0112012E80E08E
:1001A600E5094508702CF50875090112022E8F0F16
:1001B600E50F6510550FF50E850F1014600C0470D1
:1001C600110512E512700B051122E51215127002C7
:0301D600151122DE
:03000B0002016F80
:10016F00C0E0C0D00509E50970020508640A45081A
:10017F007004F508F50920A319050DE50D700205AA
:10018F000CC394F4E50C94014008D2A3750C0075D0
:07019F000D00D0D0D0E032CA
:1002A500438E805389F0758ACD758CD4C28DD28CDE
:0302B500D2A922A9
:1002B800C2A7C2A68F80D2A51202FAC2A50202FA6C
:1002C800D2A7C2A68F80D2A51202FAC2A50202FA4C
:100291007F381202B87F0C1202B87F061202B87FB3
:0402A100010202B89C
:100264008D1AEF64017005E51A148004E51A243F21
:070274004480FF1202B822D2
:0A02F0008B1B120264AF1B0202C850
:060205008B138A14891519
:10020B00E4F516120264E4F516AB13AA14A91585CE
:10021B00168275830012000EFF60071202C80516C6
:02022B0080E76A
:01022D0022AE
:04024A00AB05A90750
:10024E007F017E00E4FAEAC39B500AE9FD7C0012AE
:05025E00003B0A80F1E5
:010263002278
:04012E008A158B168D
:10013200E4F519120264851819D3E5199400748044
:1001420094804028E51914FD7F0A12024AAC15ADCD
:1001520016CFCDCFCECCCE12004D7C007D0A120040
:0C0162004DED2430FF1202C8151980CDAD
:01016E00226E
:0A02E50000007F367EC6DEFEDFFC5F
:0102EF0022EC
:0902FA00007F0B7EBEDEFEDFFC7E
:0103030022D7
:0C02D8007F167E037DE3DDFEDEFCDFFA16
:0102E40022F7
:10022E00E4FF2093027F012094027F022095027F3B
:0B023E00032096027F0420B3027F051E
:010249002292
:030000000200A259
:0C00A200787FE4F6D8FD75811B0200E9B0
:10000E00BB010CE58229F582E5833AF583E02250A7
:10001E0006E92582F8E622BBFE06E92582F8E222F1
:0D002E00E58229F582E5833AF583E493220B
:10003B00EF8DF0A4A8F0CF8CF0A428CE8DF0A42ED9
:02004B00FE2293
:10004D00BC000BBE0029EF8DF084FFADF022E4CC97
:10005D00F875F008EF2FFFEE33FEEC33FCEE9DEC60
:10006D00984005FCEE9DFE0FD5F0E9E4CEFD22EDA6
:10007D00F8F5F0EE8420D21CFEADF075F008EF2FF0
:10008D00FFED33FD4007985006D5F0F222C398FDE1
:05009D000FD5F0EA227E
:1000AE000201D9E493A3F8E493A34003F68001F28E
:1000BE0008DFF48029E493A3F85407240CC8C33353
:1000CE00C4540F4420C8834004F456800146F6DF22
:1000DE00E4800B010204081020408090027BE47E35
:1000EE00019360BCA3FF543F30E509541FFEE49317
:1000FE00A360010ECF54C025E060A840B8E493A3DE
:10010E00FAE493A3F8E493A3C8C582C8CAC583CA08
:10011E00F0A3C8C582C8CAC583CADFE9DEE780BEC0
:01029000006D
:00000001FF
