:100E240025332E3266005072657373204F4B205366
:100E3400746172742100496E70757420506173730B
:100E4400776F7264004552524F52005249474854DA
:010E5400009D
:100DF0000222000002480000023E00000230000013
:100E000002320000044230303030012B00012F0547
:100E1000064A303030303030062531303030303016
:030E2000012E00A0
:100EEF00120F3C120F95120FA4D2B7D2B6D2B5D2B1
:0C0EFF00B4120A48120B40120E5580F588
:100B4000E54945486003020C1BF548754901E52B52
:100B500070557553FF75540E755524853A5985396E
:100B600058853857853756FB7A0079421206357F0B
:100B70000C120F757BFF7A0E792A7D017F01120E10
:100B80007FAB427D017F02120FCBAB437D027F0220
:100B9000120FCBAB447D037F02120FCBAB457D041C
:100BA0007F02120FCB8053E52B6401701E7F0F1262
:100BB0000F757BFF7A0E793A7D027F01120E7F7BE3
:100BC000007A00794A7D067F02802CE52B64027052
:100BD000117F0C120F757BFF7A0E79497D067F011C
:100BE0008015E52B640370127F0C120F757BFF7A62
:100BF0000E794F7D067F01120E7FAF2BEF640260EE
:100C000005EF6403700D7FD07E07120F651200039D
:0C0C1000E4F52BE52F24C0FF120F752225
:100A4800E52345226003020B3FF522752301120EB0
:100A5800CF8F36E5366541FF5536F540E536F45F0C
:100A6800F524853641E5406006753C07753DD0E5BF
:100A7800416025E53D453C701F120003752B01E4DC
:100A8800F52ED3E52E940574809480500B744A2576
:100A98002EF87630052E80EAE53D453C7003020BC2
:100AA8003FE52424FE60151460271460371460465F
:100AB80014605524056003020B3F80767445252F8A
:100AC800F8067445252FF8E6D39439400276398024
:100AD800617445252FF8167445252FF8E6B42F02C2
:100AE8007630804E152FD3E52F940574809480506E
:100AF80003752F05803C052FC3E52F940A74809455
:100B0800804003752F0A802A12000375530075541C
:100B1800007555257556007557067B007A00794A89
:100B2800120D40EF3395E04F7005752B0380037568
:080B38002B02E4F53CF53D221F
:100E5500E53F453E7023F53E753F01FF120F518F6B
:100E65003BAC3BE41200B8E4FBFA794C7842120043
:0A0E7500118F3A8E398D388C372228
:03000B00020C1CC8
:100C1C00C0E0C0D00523E52370020522640A4522FA
:100C2C007004F522F5230549E5497002054864C8AE
:100C3C0045487004F548F549053FE53F7002053E0F
:100C4C006464453E7004F53EF53FD3E52D9400E514
:100C5C002C94004008E52D152D7002152CD3E53D84
:100C6C009400E53C94004008E53D153D7002153CB0
:100C7C000535E53570020534C394E8E5349403403A
:100C8C00067534007535000547E54770020546C307
:100C9C0094E8E5469403400BA2A2B392A2754600D9
:080CAC00754700D0D0D0E03202
:100F65008E2C8F2DD3E52D9400E52C940050F52281
:100F3C00438E805389F0758ACD758CD4C28DD28C3A
:050F4C00D2A9D2AF2282
:100F7500C2A7C2A68F80D2A5120FD5C2A5020FD5D2
:100F8500D2A7C2A68F80D2A5120FD5C2A5020FD5B2
:0F0F95007F38120F757F0C120F757F06020F75D4
:100F25008D54EF64017005E554148004E554243FA5
:070F35004480FF120F75223A
:0A0FCB008B50120F25AF50020F8566
:060E7F008B508A518952DC
:100E8500E4F553120F25E4F553AB50AA51A9528549
:100E950053827583001204EFFF6007120F85055317
:020EA50080E7E4
:010EA7002228
:040F0B00AB05A90782
:100F0F007F017E00E4FAEAC39B500AE9FD7C0012E0
:050F1F00052E0A80F11F
:010F240022AA
:040DAF008A0A8B0B16
:100DB300E4F50E120F25850D0ED3E50E9400748015
:100DC30094804028E50E14FD7F0A120F0BAC0AAD88
:100DD3000BCFCDCFCECCCE1205407C007D0A1205C1
:0C0DE30040ED2430FF120F85150E80CD6E
:010DEF0022E1
:050003007F01020F75F2
:0A0FC00000007F367EC6DEFEDFFC77
:010FCA002204
:090FD500007F0B7EBEDEFEDFFC96
:010FDE0022F0
:0C0FB3007F167E037DE3DDFEDEFCDFFA2E
:010FBF00220F
:100ECF00E4FF2092010F2093027F022094027F0300
:0F0EDF002095027F042096027F0520B3027F0634
:010EEE0022E1
:0F0FA400759D01E4F5BD75BC80120FD5020FD508
:100F5100EF4488F5BC00000000E5BC30E4FB53BC65
:040F6100EFAFBD220F
:10000E0002012BEC5D046005E85904700302012126
:10001E001200EC580460F6EC4860F2EC7004FDFE41
:10002E00FF22C860DB2481C85009C39860025006C5
:10003E000201289850CAF582E9294B4A7005AB8215
:10004E0002011775F0007C1A7880C3EF9BEE9AEDD3
:10005E0099400DC3EF9BFFEE9AFEED99FDE842F03D
:10006E00DC23ACF0D0E0FFD0E0FED0E0FDAB822090
:10007E00E7101BEB60BAEC2CFCEF33FFEE33FEED1A
:10008E0033FD020103E803F830E705C0F075F00018
:10009E00EF2FFFEE33FEED33FD40B830E7C280AAFE
:1000AE0075F020800E75F010800575F0087D007ECD
:1000BE00007F003392D530D503120595EC334010F6
:1000CE00EF33FFEE33FEED33FDEC33FCD5F0ED22D6
:0E00DE00E5F0247EA2D513CC92E7CDCEFF2212
:1005D900E5672453F8E60567227850300702785317
:1005E900E475F0011205A30204D62000EB7F2ED298
:1005F900008018EF540F2490D43440D4FF30040BFA
:10060900EF24BFB41A0050032461FFE568600215A6
:1006190068056BE56B7002056A30070D7850E47563
:10062900F0011205A3EF02051C020EA87403D207FC
:100639008003E4C207F5678B508A518952E4F56853
:10064900F56AF56BE56860077F2012061480F57579
:1006590069FFC201C200C202C203C205C206C208C2
:100669001205E2FF700D3007057F00120625AF6BFA
:10067900AE6A22B4255FC2D5C2041205E2FF24D0B6
:10068900B40A00501A75F00A786830D50508B6FF23
:100699000106C6A426F620D5047002D20380D92407
:1006A900CFB41A00EF5004C2E5D204020912D201F4
:1006B90080C6D20080C0D20280BCD2D580BAD20511
:1006C90080B47F201206142002077401B568004027
:1006D900F11205D9FF12061402064DD208D206807E
:1006E900951205D9FB1205D9FA1205D9F94A4B70A9
:1006F9000679097A0A7BFF20022EE568602A7E00C6
:100709008E827583001204EF60060EEE656970F043
:10071900C2D5EBC0E0EAC0E0E9C0E0EE120972D050
:10072900E0F9D0E0FAD0E0FB1204D6FF60AAEBC0F2
:10073900E0EAC0E0E9C0E0120614D0E02401F9D0F3
:10074900E03400FAD0E0FBE5690460DCD569D980C2
:1007590087D20280A212095560F7E5697001041277
:100769000136A969600DE569600914F5691209FC8A
:10077900EF60F3EA30E702F404C3995077EAF4250D
:10078900690430E701E404F569800D12095560C177
:10079900EA05692569120136EA7866F630E701E467
:1007A900256904D5690420050114120972E4C0E021
:1007B9001209FC7866E6601320E70714F61205FCB7
:1007C900802204F6D0E014C0E07F001205FCE56940
:1007D90060071205F31569800B3005031205F3D084
:1007E900E002064DD0E00480C512095560A0E56914
:1007F900041201367866EAF6E5692005026001040B
:05080900240412097235
:10080E0074FF04C0E01209FC1205FCE56920050224
:10081E0060031205F3D0E0B569E87F45120606784D
:10082E0066E67F2B30E7047F2DF404C0E012061439
:10083E00D0E075F00A84C0F01205FDD0E01205FD7F
:10084E0002064D791080027908C206C2088008D2CD
:10085E00D5790A8004790AC2D5E569047002F56972
:10086E00E4FAFDFEFF1205D9FC7B082001131205E8
:10087E00D9FD7B1030000A1205D9FE1205D9FF7B77
:10088E0020EC3382D592D55013C3E43000069FFF7F
:10089E00E49EFEE42001039DFDE49CFCE4CBF8C243
:1008AE0001EC700CCFCECDCCE824F8F870F38017A5
:1008BE00C3EF33FFEE33FEED33FDEC33FCEB33FBD6
:1008CE00994002FB0FD8E9EB300105F8D0E0C4489F
:1008DE00B201C0E00AEC4D4E4F78207B0070C2EAA8
:1008EE00B5690040BCC0E0120974D0F0D0E0200120
:1008FE0004C4C0E0C4B201C0F01205FDD0F0D5F0C2
:10090E00EB02064D1205B306EA5308515806BB4CCE
:10091E0006B74208554F085D44085D4906D04308A6
:10092E00635507944607F245075E470A295006BFEE
:10093E002D06C32E06E62B06C72306E4200A122A2E
:10094E00067F48000006DEE569B4FF0375690612EE
:10095E0005D9FC1205D9FD1205D9FE1205D9FF786D
:10096E005F020165790AA2D5200314300509B9107A
:10097E00020404B9080104A2D52006025001042085
:10098E0002689202B568005034C0E07F203003192F
:10099E007F30A20272067205500F1209CBC202C23C
:1009AE0006C205C2087F30800F300503E9C0E01291
:1009BE000614300503D0E0F9D0E0B568CC30051749
:1009CE007F30B9100C1206147F583004077F7880E0
:1009DE0003B908031206143002057F2D0206147F98
:1009EE00202008F87F2B2006F322920280CF7F0072
:1009FE00B407005005245FF8E6FF22286E756C6C74
:100A0E002900D2011205D93001F8C201786830D51B
:100A1E000108F602067F2D504349581205D92403CA
:100A2E00B405004001E4900A2493120605743A12AC
:0A0A3E000605D20375680402085192
:1000EC00E9D2E7C933E833F892D5EDD2E7CD33EC5A
:0700FC0033FC5002B2D522D3
:10010300EC30E7100FBF000C0EBE00080DBD00045D
:100113000BEB6014A2D5EB13FCED92E7FD2274FF09
:10012300FCFDFEFF22E480F8A2D574FF13FC7D8062
:03013300E480EF76
:10013600F920E72824F950037907E4F42402FB1890
:10014600DBFDE624FB5014E9600DE4F618E604F640
:0F015600B40A08E4F6D9F57401F60A22C2D522DC
:10016500ED33EC3392D5FA602AB4FF33EDC2E77B69
:10017500FF60067A01798AE4227A01799320D50411
:100185007A01798E224E614E002B494E46002D494B
:100195004E4600E47A08F608DAFC7B00740722E88C
:1001A500C0E0ECC0E0EDC0E0EEC0E0EFC0E0EA7515
:1001B500F010A4CAABF075F04DA42BFBE435F0FCB0
:1001C500EA2410FAEB34C5FBEC34D9FCEDC2E7FFA9
:1001D50075F056A4F42411C5F0F434C58FF0A42AA3
:1001E500E5F03BE43CF620E714120496D0E0FFD09E
:1001F500E0FED0E0FDD0E0FC1200118014F4041202
:100205000496D0E0FFD0E0FED0E0FDD0E0FC120384
:1002150060D0E0F8E6FAEDD2E7CD33EC332482FB8B
:10022500E4C3CF33CFCE33CECD33CD33DBF37B0732
:1002350075F00A846004F6081B0AE5F0F6088FF0ED
:10024500740AA4FFACF08EF0740AA42CFEACF05036
:10025500010C8DF0740AA42CFDE435F0F608DBDE04
:03026500740722F9
:10026800020121E86480F8E933E83360110460F0A2
:10027800ED33EC337009E8FCE9FDEAFEEBFF2204FC
:1002880060DED3EB9FEA9EE99DE8C2E78CF0C2F7F7
:1002980095F0400CE8CCF8E9CDF9EACEFAEBCFFBC3
:1002A8001200EC85D0F05804700320D5B3E8047030
:1002B800075002B2D502012B92D5EC0460F7E4CCCA
:1002C800C0E0C398F8603B94186008400DD0E0FB8C
:1002D800020103E4FBFAC9FC8028E830E406E4C91B
:1002E800FBE4CAFCE830E305E4C9CACBFCE85407E0
:1002F8006010F8C3E913F9EA13FAEB13FBEC13FCEB
:10030800D8F130F52FC3E49CFCEF9BFFEE9AFEED8D
:1003180099FDD0E0FBEF4E4D4C701222DB03020139
:1003280028EC2CFCEF33FFEE33FEED33FDED30E728
:10033800EB020103EF2BFFEE3AFEED39FDD0E0FBB7
:1003480050130BBB000302012BED13FDEE13FEEF60
:0803580013FFEC13FC0201038A
:10036000EC4D6011E8497017ED33EC3304600DE497
:10037000FCFFFEFD22E933E8330470F8020121128C
:1003800000EC58046009E4CC24815006285009028E
:10039000012B284003020128C0E0EB4A7044B980D9
:1003A00006D0E0FB020117EF4E701CBD8008EBFF8A
:1003B000EAFEE9FD80EBE98DF0A4FEE5F0020449D8
:1003C000E9CDF9EAFEEBFFEF89F0A4FCE5F0CE8978
:1003D000F0A42EFFE435F0CD89F0A42DFEE435F035
:1003E0008067EF4E7005BD80D780C3EF8BF0A4AC63
:1003F000F0EE8BF0A42CFCE435F0F8EF8AF0A42C9E
:10040000E5F038FCE433CB8DF0A42CFCE5F03BF8B0
:10041000EE8AF0A42CFCE5F038F8E433CF89F0A4A0
:100420002CFCE5F038CF3400CE89F0A42FFFE5F0A6
:100430003EFEE433C98DF0A42EFEE5F039CD8AF0FE
:10044000A42FFFE5F03EFEE43DFD33D0E0FB500776
:100450000BBB000F02012BEC2CFCEF33FFEE33FE45
:06046000ED33FD02010373
:100466003F8000004120000042C80000447A00009E
:10047600461C400047C35000497424004B18968020
:100486004CBEBC205A0E1BCA6753C21C749DC5AE17
:10049600FB60065407601C23231204C4EB54386027
:1004A600091204B01204BF120360ECF8EDF9EEFA7B
:1004B600EFCB22EB1204BF80F1543803241C9004C6
:1004C60066FE93FC0EEE93FD0EEE930ECE93FF2288
:03000000020CB43B
:0C0CB400787FE4F6D8FD75816B020CFB24
:1004D600BB010689828A83E0225002E722BBFE0224
:0904E600E32289828A83E4932257
:1004EF00BB010CE58229F582E5833AF583E02250C2
:1004FF0006E92582F8E622BBFE06E92582F8E2220C
:0D050F00E58229F582E5833AF583E4932225
:10051C00BB010689828A83F0225002F722BBFE01BE
:02052C00F322B8
:10052E00EF8DF0A4A8F0CF8CF0A428CE8DF0A42EE1
:02053E00FE229B
:10054000BC000BBE0029EF8DF084FFADF022E4CC9F
:10055000F875F008EF2FFFEE33FEEC33FCEE9DEC68
:10056000984005FCEE9DFE0FD5F0E9E4CEFD22EDAE
:10057000F8F5F0EE8420D21CFEADF075F008EF2FF8
:10058000FFED33FD4007985006D5F0F222C398FDE9
:050590000FD5F0EA2286
:0E059500C3E49FFFE49EFEE49DFDE49CFC2277
:1005A300FAE6FB0808E6F925F0F618E6CA3AF62259
:1005B300D083D082F8E4937012740193700DA3A3D7
:1005C30093F8740193F5828883E4737402936860EB
:0605D300EFA3A3A380DFEB
:100EA800EFB40A07740D120EB3740A309811A8999A
:100EB800B8130CC2983098FDA899C298B811F630AA
:070EC80099FDC299F5992282
:100D40008B508A518952AB53AA54A9551204D6FE2E
:100D5000AB50AA51A9521204D6FF6E702BEF600D52
:100D6000E55715577002155614455670037F00223B
:100D700074012552F552E43551F55174012555F5AC
:100D800055E43554F55480BEAB50AA51A952120413
:100D9000D6FDD3EE6480F8ED64809840037F012295
:0F0DA000AB53AA54A9551204D6FFC3ED9FFF22EF
:100CC000020EEFE493A3F8E493A34003F68001F24D
:100CD00008DFF48029E493A3F85407240CC8C33335
:100CE000C4540F4420C8834004F456800146F6DF04
:100CF000E4800B0102040810204080900DF0E47E97
:100D0000019360BCA3FF543F30E509541FFEE493F8
:100D1000A360010ECF54C025E060A840B8E493A3BF
:100D2000FAE493A3F8E493A3C8C582C8CAC583CAEA
:100D3000F0A3C8C582C8CAC583CADFE9DEE780BEA2
:010E230000CE
:00000001FF
