:100E490025332E3266005072657373204F4B205341
:100E59007461727421007546006E4600704600493F
:100E69006E7075742050617373776F7264004552A8
:100E7900524F5200524947485400576169742E2E07
:0F0E89002E005072657373204F4B20456E64002E
:100ED9000222000002500000024600000238000011
:100EE900023A0000024E000102360000044A303086
:100EF9003030012C000130050652303030303030AE
:0B0F09000625313030303030012F0061
:100F8500120FD112102A121039C201E4FF120DEF0F
:0B0F9500120B181209FC12105580F519
:1009FC00E55145506003020B17F550755101E52C7C
:100A0C00707C755BFF755C0E755D49853F61853E3D
:100A1C0060853D5F853C5EFB7A00794A1205E97F73
:100A2C000C12100A7BFF7A0E794F7D017F01120F99
:100A3C0015AB4A7D017F0212106CAB4B7D027F021D
:100A4C0012106CAB4C7D037F0212106CAB4D7D040D
:100A5C007F0212106CE543146012146017240260BC
:100A6C0003020AF67BFF7A0E795F800E7BFF7A0E0B
:100A7C00796280287BFF7A0E79657D058067E52C8D
:100A8C006401701C7F0F12100A7BFF7A0E79687D4F
:100A9C00027F01120F157B007A0079527D0680458A
:100AAC00E52C6402700D7F0C12100A7BFF7A0E7914
:100ABC00778011E52C640370117F0C12100A7BFFF8
:100ACC007A0E797D7D067F01801DE52C6404701AF9
:100ADC007BFF7A0E79837D017F01120F157BFF7AE4
:100AEC000E798B7D017F02120F15AF2CEF64026023
:100AFC0005EF6403700D7FD07E07120FFA1200030E
:0C0B0C00E4F52CE53024C0FF12100A2292
:100B1800E52345226003020C31F522752301120FEB
:100B2800658F42E5426549FF5542F548E542F45F65
:100B3800F524854249E54860067544077545D0E5C2
:100B4800496025E5454544701F120003752C01E4F2
:100B5800F52FD3E52F940574809480500B7452259B
:100B68002FF87630052F80EAE54545447003020CDE
:100B780031E52424FE601614602914603914604895
:100B880014605724056003020C31020C2C744D25A7
:100B980030F806744D2530F8E6D39439400276399A
:100BA800020C2C744D2530F816744D2530F8E6B437
:100BB8002F027630806E1530D3E53094057480941A
:100BC800805003753005805C0530C3E530940A74A5
:100BD800809480400375300A804AE52C7008120022
:100BE80003752C04803EE52C64047008120003E4AD
:100BF800F52C8030E52C6401702A120003755B0027
:100C0800755C00755D25755E00755F067B007A0072
:100C18007952120D80EF3395E04F7005752C0380E3
:0A0C280003752C02E4F544F54522A3
:0C105500E54745467005F5467547012249
:03000B00020C32B2
:100C3200C0E0C0F0C083C082C0D075D000C000C088
:100C420001C002C003C004C005C006C0070523E5F9
:100C52002370020522640A45227004F522F5230559
:100C620051E5517002055064C845507004F550F5C5
:100C7200510547E54770020546640A45467004F58A
:100C820046F547D3E52E9400E52D94004008E52E65
:100C9200152E7002152DD3E5459400E544940040CD
:100CA20008E5451545700215440537E5377002051C
:100CB20036D394E8E53694034016052BD3E52B94FE
:100CC20004748094804003752B01753600753700DB
:100CD200D201AF2B120DEFD007D006D005D004D031
:100CE20003D002D001D000D0D0D082D083D0F0D0B7
:020CF200E032EE
:100FFA008E2D8F2ED3E52E9400E52D940050F522E8
:100FD100438E805389F0758ACD758CD4C28DD28CA5
:050FE100D2A9D2AF22ED
:10100A00C2A7C2A68F80D2A5121076C2A5021076F8
:10101A00D2A7C2A68F80D2A5121076C2A5021076D8
:0F102A007F3812100A7F0C12100A7F0602100A7C
:100FBA008D5CEF64017005E55C148004E55C243FF8
:070FCA004480FF12100A220F
:0A106C008B58120FBAAF5802101A89
:060F15008B588A59895A2D
:100F1B00E4F55B120FBAE4F55BAB58AA59A95A85F5
:100F2B005B827583001204B1FF600712101A055B18
:020F3B0080E74D
:010F3D002291
:040FA000AB05A907ED
:100FA4007F017E00E4FAEAC39B500AE9FD7C00124B
:050FB40004F00A80F1C9
:010FB9002215
:040E98008A0A8B0B2C
:100E9C00E4F50E120FBA850D0ED3E50E9400748096
:100EAC0094804028E50E14FD7F0A120FA0AC0AAD09
:100EBC000BCFCDCFCECCCE1205027C007D0A120515
:0C0ECC0002ED2430FF12101A150E80CD2C
:010ED80022F7
:050003007F0102100A5C
:0A10610000007F367EC6DEFEDFFCD5
:01106B002262
:09107600007F0B7EBEDEFEDFFCF4
:01107F00224E
:0C1048007F167E037DE3DDFEDEFCDFFA98
:011054002279
:100F6500E4FF2092010F2093027F022094027F0369
:0F0F75002095027F042096027F0520B3027F069D
:010F8400224A
:0F103900759D01E4F5BD75BC801210760210762E
:100FE600EF4488F5BC00000000E5BC30E4FB53BCD0
:040FF600EFAFBD227A
:100DEF00EF14601D14602914603514603E240470E4
:100DFF0048300109C2B4C2B5C2B6C2B722D2B4805C
:100E0F002F300109C2B7D2B4D2B5D2B622D2B7228F
:100E1F00300109C2B6D2B4D2B5D2B722D2B622307F
:100E2F000106C2B5D2B4800AD2B522300109C2B4CC
:0A0E3F00D2B5D2B6D2B722D2B42247
:10058D00E56F245BF8E6056F227858300802785B3A
:10059D00E475F0011205570204982001EB7F2ED26D
:1005AD00018018EF540F2490D43440D4FF30050B44
:1005BD00EF24BFB41A0050032461FFE570600215EB
:1005CD00700573E5737002057230080D7858E47587
:1005DD00F001120557EF0204DE020F3E7403D2083C
:1005ED008003E4C208F56F8B588A59895AE4F57077
:1005FD00F572F573E57060077F201205C880F575FB
:10060D0071FFC202C201C203C204C206C207C209FF
:10061D00120596FF700D3008057F001205D9AF73D6
:10062D00AE7222B4255FC2D5C205120596FF24D045
:10063D00B40A00501A75F00A787030D50508B6FF67
:10064D000106C6A426F620D5047002D20480D92452
:10065D00CFB41A00EF5004C2E5D2050208C6D2028B
:10066D0080C6D20180C0D20380BCD2D580BAD2065A
:10067D0080B47F201205C82003077401B5700040B7
:10068D00F112058DFF1205C8020601D209D20780AD
:10069D009512058DFB12058DFA12058DF94A4B70D9
:1006AD000679BD7A097BFF20032EE570602A7E0056
:1006BD008E827583001204B160060EEE657170F0C6
:1006CD00C2D5EBC0E0EAC0E0E9C0E0EE120926D0E9
:1006DD00E0F9D0E0FAD0E0FB120498FF60AAEBC07D
:1006ED00E0EAC0E0E9C0E01205C8D0E02401F9D08D
:1006FD00E03400FAD0E0FBE5710460DCD571D980FF
:10070D0087D20380A212090960F7E5717001041206
:10071D00000EA971600DE571600914F5711209B033
:10072D00EF60F3EA30E702F404C3995077EAF42559
:10073D00710430E701E404F571800D12090960C1FF
:10074D00EA0571257112000EEA786EF630E701E4C4
:10075D00257104D5710420060114120926E4C0E0A8
:10076D001209B0786EE6601320E70714F61205B093
:10077D00802204F6D0E014C0E07F001205B0E571D0
:10078D0060071205A71571800B3006031205A7D05F
:10079D00E0020601D0E00480C512090960A0E571F0
:1007AD000412000E786EEAF6E5712006026001046F
:0507BD002404120926CE
:1007C20074FF04C0E01209B01205B0E57120060200
:1007D20060031205A7D0E0B571E87F451205BA782B
:1007E2006EE67F2B30E7047F2DF404C0E01205C8CB
:1007F200D0E075F00A84C0F01205B1D0E01205B164
:10080200020601791080027908C207C2098008D263
:10081200D5790A8004790AC2D5E571047002F571AE
:10082200E4FAFDFEFF12058DFC7B0820021312057F
:100832008DFD7B1030010A12058DFE12058DFF7BA6
:1008420020EC3382D592D55013C3E43001069FFFCA
:10085200E49EFEE42002039DFDE49CFCE4CBF8C28E
:1008620002EC700CCFCECDCCE824F8F870F38017F0
:10087200C3EF33FFEE33FEED33FDEC33FCEB33FB22
:10088200994002FB0FD8E9EB300205F8D0E0C448EA
:10089200B202C0E00AEC4D4E4F78207B0070C2EAF3
:1008A200B5710040BCC0E0120928D0F0D0E02002AF
:1008B20004C4C0E0C4B202C0F01205B1D0F0D5F059
:1008C200EB020601120567069E53080558066F4C97
:1008D200066B4208094F081144081149068443086F
:1008E200175507484607A64507124709DD50067304
:1008F2002D06772E069A2B067B2306982009C62AF8
:1009020006334800000692E571B4FF0375710612C2
:10091200058DFC12058DFD12058DFE12058DFF78E9
:100922006702003D790AA2D5200414300609B910E5
:10093200020404B9080104A2D520070250010420D0
:1009420003689203B570005034C0E07F2030041970
:100952007F30A20372077206500F12097FC203C2D0
:1009620007C206C2097F30800F300603E9C0E012D9
:1009720005C8300603D0E0F9D0E0B570CC300617D8
:100982007F30B9100C1205C87F583005077F788078
:1009920003B908031205C83003057F2D0205C87F7D
:1009A200202009F87F2B2007F322920380CF7F00BB
:1009B200B4070050052467F8E6FF22286E756C6CB8
:1009C2002900D20212058D3002F8C202787030D5A9
:1009D2000108F60206332D5043495812058D2403AF
:1009E200B405004001E49009D8931205B9743A1293
:0A09F20005B9D2047570040208056F
:10000E00F920E72824F950037907E4F42402FB18B9
:10001E00DBFDE624FB5014E9600DE4F618E604F669
:0F002E00B40A08E4F6D9F57401F60A22C2D52205
:10003D00ED33EC3392D5FA602AB4FF33EDC2E77B92
:10004D00FF60067A007962E4227A00796B20D5048C
:10005D007A007966224E614E002B494E46002D499D
:10006D004E4600E47A08F608DAFC7B00740722E8B5
:10007D00C0E0ECC0E0EDC0E0EEC0E0EFC0E0EA753E
:10008D00F010A4CAABF075F04DA42BFBE435F0FCD9
:10009D00EA2410FAEB34C5FBEC34D9FCEDC2E7FFD2
:1000AD0075F056A4F42411C5F0F434C58FF0A42ACC
:1000BD00E5F03BE43CF620E71412040ED0E0FFD04F
:1000CD00E0FED0E0FDD0E0FC1203418014F40412F8
:1000DD00040ED0E0FFD0E0FED0E0FDD0E0FC120237
:1000ED0038D0E0F8E6FAEDD2E7CD33EC332482FBDD
:1000FD00E4C3CF33CFCE33CECD33CD33DBF37B075C
:10010D0075F00A846004F6081B0AE5F0F6088FF016
:10011D00740AA4FFACF08EF0740AA42CFEACF0505F
:10012D00010C8DF0740AA42CFDE435F0F608DBDE2D
:03013D0074072222
:10014000020483E86480F8E933E83360110460F066
:10015000ED33EC337009E8FCE9FDEAFEEBFF220425
:1001600060DED3EB9FEA9EE99DE8C2E78CF0C2F720
:1001700095F0400CE8CCF8E9CDF9EACEFAEBCFFBEC
:1001800012044E85D0F05804700320D5B3E80470F3
:10019000075002B2D502048D92D5EC0460F7E4CC8E
:1001A000C0E0C398F8603B94186008400DD0E0FBB5
:1001B000020465E4FBFAC9FC8028E830E406E4C9DF
:1001C000FBE4CAFCE830E305E4C9CACBFCE8540709
:1001D0006010F8C3E913F9EA13FAEB13FBEC13FC14
:1001E000D8F130F52FC3E49CFCEF9BFFEE9AFEEDB7
:1001F00099FDD0E0FBEF4E4D4C701222DB03020460
:100200008AEC2CFCEF33FFEE33FEED33FDED30E7EF
:10021000EB020465EF2BFFEE3AFEED39FDD0E0FB7B
:1002200050130BBB000302048DED13FDEE13FEEF24
:0802300013FFEC13FC0204654E
:10023800EC4D6011E8497017ED33EC3304600DE4C0
:10024800FCFFFEFD22E933E8330470F80204831250
:10025800044E58046009E4CC248150062850090251
:10026800048D28400302048AC0E0EB4A7044B98038
:1002780006D0E0FB020479EF4E701CBD8008EBFF4E
:10028800EAFEE9FD80EBE98DF0A4FEE5F00203212A
:10029800E9CDF9EAFEEBFFEF89F0A4FCE5F0CE89A1
:1002A800F0A42EFFE435F0CD89F0A42DFEE435F05E
:1002B8008067EF4E7005BD80D780C3EF8BF0A4AC8C
:1002C800F0EE8BF0A42CFCE435F0F8EF8AF0A42CC7
:1002D800E5F038FCE433CB8DF0A42CFCE5F03BF8DA
:1002E800EE8AF0A42CFCE5F038F8E433CF89F0A4CA
:1002F8002CFCE5F038CF3400CE89F0A42FFFE5F0D0
:100308003EFEE433C98DF0A42EFEE5F039CD8AF027
:10031800A42FFFE5F03EFEE43DFD33D0E0FB50079F
:100328000BBB000F02048DEC2CFCEF33FFEE33FE09
:06033800ED33FD02046537
:10033E0002048DEC5D046005E85904700302048329
:10034E0012044E580460F6EC4860F2EC7004FDFEA8
:10035E00FF22C860DB2481C85009C3986002500692
:10036E0002048A9850CAF582E9294B4A7005AB827D
:10037E0002047975F0007C1A7880C3EF9BEE9AED3B
:10038E0099400DC3EF9BFFEE9AFEED99FDE842F00A
:10039E00DC23ACF0D0E0FFD0E0FED0E0FDAB82205D
:1003AE00E7101BEB60BAEC2CFCEF33FFEE33FEEDE7
:1003BE0033FD020465E803F830E705C0F075F00080
:1003CE00EF2FFFEE33FEED33FD40B830E7C280AACB
:1003DE003F8000004120000042C80000447A000027
:1003EE00461C400047C35000497424004B189680A9
:1003FE004CBEBC205A0E1BCA6753C21C749DC5AEA0
:10040E00FB60065407601C232312043CEB54386037
:10041E0009120428120437120238ECF8EDF9EEFA3C
:10042E00EFCB22EB12043780F1543803241C9003D7
:10043E00DEFE93FC0EEE93FD0EEE930ECE93FF2298
:10044E00E9D2E7C933E833F892D5EDD2E7CD33ECF4
:07045E0033FC5002B2D5226D
:10046500EC30E7100FBF000C0EBE00080DBD0004F8
:100475000BEB6014A2D5EB13FCED92E7FD2274FFA4
:10048500FCFDFEFF22E480F8A2D574FF13FC7D80FD
:03049500E480EF11
:03000000020CF4FB
:0C0CF400787FE4F6D8FD758173020D3B9B
:10049800BB010689828A83E0225002E722BBFE0262
:0904A800E32289828A83E4932295
:1004B100BB010CE58229F582E5833AF583E0225000
:1004C10006E92582F8E622BBFE06E92582F8E2224A
:0D04D100E58229F582E5833AF583E4932264
:1004DE00BB010689828A83F0225002F722BBFE01FD
:0204EE00F322F7
:1004F000EF8DF0A4A8F0CF8CF0A428CE8DF0A42E20
:02050000FE22D9
:10050200BC000BBE0029EF8DF084FFADF022E4CCDD
:10051200F875F008EF2FFFEE33FEEC33FCEE9DECA6
:10052200984005FCEE9DFE0FD5F0E9E4CEFD22EDEC
:10053200F8F5F0EE8420D21CFEADF075F008EF2F36
:10054200FFED33FD4007985006D5F0F222C398FD27
:050552000FD5F0EA22C4
:10055700FAE6FB0808E6F925F0F618E6CA3AF622A5
:10056700D083D082F8E4937012740193700DA3A323
:1005770093F8740193F5828883E473740293686037
:06058700EFA3A3A380DF37
:100F3E00EFB40A07740D120F49740A309811A8996C
:100F4E00B8130CC2983098FDA899C298B811F63013
:070F5E0099FDC299F59922EB
:100D80008B588A59895AAB5BAA5CA95D120498FEFC
:100D9000AB58AA59A95A120498FF6E702BEF600D38
:100DA000E55F155F7002155E14455E70037F0022DB
:100DB0007401255AF55AE43559F5597401255DF544
:100DC0005DE4355CF55C80BEAB58AA59A95A1204A3
:100DD00098FDD3EE6480F8ED64809840037F012293
:0F0DE000AB5BAA5CA95D120498FFC3ED9FFF22D5
:100D0000020F85E493A3F8E493A34003F68001F275
:100D100008DFF48029E493A3F85407240CC8C333F4
:100D2000C4540F4420C8834004F456800146F6DFC3
:100D3000E4800B0102040810204080900ED9E47E6C
:100D4000019360BCA3FF543F30E509541FFEE493B8
:100D5000A360010ECF54C025E060A840B8E493A37F
:100D6000FAE493A3F8E493A3C8C582C8CAC583CAAA
:100D7000F0A3C8C582C8CAC583CADFE9DEE780BE62
:010F140000DC
:00000001FF
